:400000000080002011000000396A0000396A000080B500AF024A034B1B68136006F016FDBC760040FA46004010B5054C237833B9044B13B10448AFF300800123237010BDB8
:400040007081FF1F0000000078A70000084B10B51BB108490848AFF300800848036803B910BD074B002BFBD0BDE81040184700BF000000007481FF1F78A70000C880FF1F74
:400080000000000080B58CB004AFF860B9603B601346FB80FB889B00184601F00FFE78617B69002B0ED0502001F008FEF861FB69002B03D0FB697A691A6305E0786901F05F
:4000C0008FFE01E00023FB61FB69002B13D0FA8800230393FB690293FB6A0193BB6A00933B68B968F86800F00FF8F86900F084F80123BB6102E04FF0FF33BB61BB691846A3
:400100002037BD4680BD00BF80B586B000AFF860B9607A603B60BB6A186B7B689B001A46A5210AF020FBBB6A1A6B7B6803F18043013B9B0013443B613B6923F007033B619D
:4001400000237B6112E0BA687B6913441978BA6A7B69134434330A461A70BA687B6913441B78002B06D07B6901337B617B690B2BE9D900E000BFBB6A002283F83F203B6ADA
:40018000042B01D904233B62BB6A3A6ADA62BB6A3A6A1A64BB6A00225A64BB6A0433184601F07EF8BB6A1833184601F079F8BB6ABA6A1A613B6AC3F10502BB6A9A61BB6A67
:4001C000BA6A5A62BB6A00229A64BB6A002283F84C203A68F968386901F064FE0246BB6A1A607B6A002B02D07B6ABA6A1A6000BF1837BD4680BD00BF80B582B000AF78606E
:4002000001F0D0FE2A4B1B680133294A1360294B1B68002B09D1274A7B681360244B1B68012B10D100F018FE0DE0234B1B68002B09D1204B1B68DA6A7B68DB6A9A4202D832
:400240001C4A7B6813601D4B1B6801331B4A13607B68DB6A01229A40194B1B681343184A13607B68DA6A13469B0013449B00154A1A447B6804331946104601F01DF801F004
:40028000A9FE0D4B1B68002B0ED00A4B1B68DA6A7B68DB6A9A4207D20B4B4FF080521A60BFF34F8FBFF36F8F00BF0837BD4680BD6482FF1F8C81FF1F7082FF1F8082FF1FFC
:4002C0006C82FF1F9081FF1F04ED00E080B584B000AF786001F066FE7B68002B02D1314B1B6800E07B68FB60FB680433184601F03FF80346002B15D1FB68DA6A2A491346C2
:400300009B0013449B000B441B68002B0AD1FB68DB6A012202FA03F3DA43244B1B681340224A1360FB689B6A002B04D0FB681833184601F01DF81E4B1B6801331C4A1360E8
:40034000184B1B68FA689A420BD1FB6804331946184800F0B1FF184B1B680133164A136009E0164B1B68013B144A1360F86800F0EFFD00F0FDFD01F02DFE114B1B68002B71
:400380000CD0084B1B68FA689A4207D10D4B4FF080521A60BFF34F8FBFF36F8F00BF1037BD4680BD8C81FF1F9081FF1F6C82FF1F8082FF1F3882FF1F4C82FF1F6482FF1FBE
:4003C0007082FF1F04ED00E080B586B000AF7860396000237B6100F09BFA214B1B683B617B681A683B681344FB607B681A683B699A420BD97B681A68FB689A4211D9FA680F
:400400003B699A420DD901237B610AE07B681A68FB689A4203D8FA683B699A4201D901237B617B68FA681A607B69002B06D0FA683B69D31A0021184600F0ACFE00F076FA21
:40044000B860BB68002B07D1064B4FF080521A60BFF34F8FBFF36F8F00BF1837BD4680BD6882FF1F04ED00E080B584B000AF78600023FB607B68002B08D000F049FA002153
:40048000786800F087FE00F051FAF860FB68002B07D1064B4FF080521A60BFF34F8FBFF36F8F00BF1037BD4680BD00BF04ED00E080B586B000AF78607B683B611D4B1B68A0
:4004C0003A699A4202D10023FB752DE001F06AFD3B695B69FB6001F07DFD174B1B68FA689A4204D0154B1B68FA689A4202D10223FB7519E0FB68124A934209D13B699B6AF4
:40050000002B02D10323FB750EE00223FB750BE0FB680C4A934202D0FB68002B02D10423FB7501E00123FB75FB7D18461837BD4680BD00BF8C81FF1F1C82FF1F2082FF1F21
:400540005082FF1F3882FF1F80B584B000AF786001F028FD7B68002B02D1074B1B6800E07B68FB60FB68DB6ABB6001F033FDBB6818461037BD4680BD8C81FF1F80B586B057
:4005800000AF7860396000237B613B68042B01D904233B6001F006FD7B68002B02D1434B1B6800E07B683B613B691B6CFB60FA683B689A4274D03A68FB689A420DD93B4B71
:4005C0001B683A699A420FD0384B1B68DA6A3B689A4209D801237B6106E0344B1B683A699A4201D101237B613B69DB6ABB603B691A6C3B69DB6A9A4202D13B693A68DA62EF
:400600003B693A681A643B699B69002B04DB3B68C3F105023B699A613B695969BA6813469B0013449B00224A1344994201D1012300E00023002B28D03B690433184600F0F6
:4006400097FE0346002B09D10122BB6802FA03F3DA43184B1B681340164A13603B69DB6A01229A40134B1B681343124A13603B69DA6A13469B0013449B000D4A1A443B6923
:4006800004331946104600F017FE7B69002B07D0094B4FF080521A60BFF34F8FBFF36F8F01F098FC00BF1837BD4680BD8C81FF1F9081FF1F6C82FF1F04ED00E080B584B0D1
:4006C00000AF786001F06EFC7B68002B02D1304B1B6800E07B68FB60FB680433184600F047FE0346002B15D1FB68DA6A294913469B0013449B000B441B68002B0AD1FB685A
:40070000DB6A012202FA03F3DA43234B1B681340214A1360FB689B6A002B04D0FB681833184600F025FEFB68043319461B4800F0C3FD01F04FFC1A4B1B68002B05D001F079
:4007400031FC00F015FC01F045FC114B1B68FA689A4218D1124B1B68002B08D0114B4FF080521A60BFF34F8FBFF36F8F0BE00B4B1A680D4B1B689A4203D1054B00221A60CF
:4007800001E000F025FA00BF1037BD4680BD00BF8C81FF1F9081FF1F6C82FF1F5082FF1F7082FF1F04ED00E06482FF1F80B485B000AF78600023FB607B68BB60BB685B69B6
:4007C0000E4A934201D1012300E00023002B0FD0BB689B6A0A4A93420AD0BB689B6A002B01D1012300E00023002B01D00123FB60FB6818461437BD4680BC70475082FF1FE5
:400800002482FF1F80B584B000AF78607B68FB60FB68002B39D01F4B1B68FA689A4234D001F0C0FBF868FFF7C1FF0346002B2AD0FB680433184600F09BFDFB68DB6A012285
:400840009A40154B1B681343134A1360FB68DA6A13469B0013449B00104A1A44FB6804331946104600F028FDFB68DA6A094B1B68DB6A9A4207D30A4B4FF080521A60BFF3E1
:400880004F8FBFF36F8F01F0A5FB00BF1037BD4680BD00BF8C81FF1F6C82FF1F9081FF1F04ED00E080B584B002AF134B0193002300930023642211491148FFF7E3FB786013
:4008C0007B68012B14D14FF0A00383F31188BFF36F8FBFF34F8F3B600A4B4FF0FF321A60094B01221A60094B00221A6001F03CFB00BF0837BD4680BD8882FF1F84A700005F
:40090000490E00008482FF1F7082FF1F6882FF1F80B400AF044B1B680133034A136000BFBD4680BC704700BF8C82FF1F80B584B000AF0023FB600023BB6001F033FB394B64
:400940001B68013B374A1360364B1B68002B61D1354B1B68002B5DD02EE0344BDB68DB68FB60FB681833184600F002FDFB680433184600F0FDFCFB68DB6A01229A402C4BA2
:400980001B6813432A4A1360FB68DA6A13469B0013449B00274A1A44FB6804331946104600F08AFCFB68DA6A234B1B68DB6A9A4202D3224B01221A601C4B1B68002BCCD10C
:4009C000FB68002B01D000F0D3FA1D4B1B687B607B68002B10D000F04FF80346002B02D0164B01221A607B68013B7B607B68002BF1D1134B00221A60104B1B68002B09D006
:400A00000123BB600F4B4FF080521A60BFF34F8FBFF36F8F01F0DEFABB6818461037BD4680BD00BF8C82FF1F6482FF1F2482FF1F6C82FF1F9081FF1F8C81FF1F7882FF1F50
:400A40007482FF1F04ED00E080B483B000AF044B1B687B607B6818460C37BD4680BC70476882FF1F80B400AF024B1B681846BD4680BC70476482FF1F80B586B000AF002304
:400A80007B61484B1B68002B7CD1474B1B6801333B61454A3B6913603B69002B10D1434B1B68FB60424B1B68404A1360404AFB681360404B1B6801333E4A136000F058FA39
:400AC0003D4B1B683A699A424DD3384B1B681B68002B01D1012300E00023002B04D0364B4FF0FF321A603EE0304B1B68DB68DB68BB60BB685B687B603A697B689A4203D280
:400B00002D4A7B6813602EE0BB680433184600F02FFCBB689B6A002B04D0BB681833184600F026FCBB68DB6A01229A40234B1B681343224A1360BB68DA6A13469B001344C5
:400B40009B001F4A1A44BB6804331946104600F0B3FBBB68DA6A1B4B1B68DB6A9A42B4D301237B61B1E7174B1B68DA6A144913469B0013449B000B441B68012B07D9012368
:400B80007B6104E0104B1B6801330F4A13600F4B1B68002B01D001237B617B6918461837BD4680BD8C82FF1F6882FF1F1C82FF1F2082FF1F7C82FF1F8482FF1F6C82FF1FF1
:400BC0009081FF1F8C81FF1F7482FF1F7882FF1F80B586B000AF2F4B1B68002B03D02E4B01221A6051E02C4B00221A602B4B1B681B6B7B614FF0A5333B617B691A683B69E8
:400C00009A4211D17B6904331A683B699A420BD17B6908331A683B699A4205D17B690C331A683B699A4208D01C4B1A681B4B1B6834331946104604F023FD194B1B687B6045
:400C40007B68B3FA83F3FB70FB78C3F11F03FB60FA6813469B0013449B00124A1344BB60BB685B685A68BB685A60BB685A68BB6808339A4204D1BB685B685A68BB685A604B
:400C8000BB685B68DB68054A136000BF1837BD4680BD00BF8C82FF1F7882FF1F8C81FF1F6C82FF1F9081FF1F80B582B000AF78603960074B1B6818331946786800F020FBA1
:400CC0000121386800F066FA00BF0837BD4680BD8C81FF1F80B584B000AF78607B68DB68DB68BB60BB681833184600F041FB1D4B1B68002B1CD1BB680433184600F038FB2F
:400D0000BB68DB6A01229A40174B1B681343164A1360BB68DA6A13469B0013449B00134A1A44BB6804331946104600F0C5FA05E0BB68183319460E4800F0BEFABB68DA6A63
:400D40000C4B1B68DB6A9A4205D90123FB600A4B01221A6001E00023FB60FB6818461037BD4680BD8C82FF1F6C82FF1F9081FF1F2482FF1F8C81FF1F7882FF1F80B483B0AD
:400D800000AF7860064B1A687B681A60054B1A687B685A6000BF0C37BD4680BC704700BF7C82FF1F6882FF1F80B584B000AF7860396001F0F7F81C4B1B68BB603B681B689E
:400DC000B3F1FF3F02D10023FB6026E07B681A68164B1B689A4207D07B685A68BB689A4202D80123FB6018E07B685B68BA68D21A3B681B689A420ED23B681A687B6859686A
:400E0000BB68CB1A1A443B681A607868FFF7B6FF0023FB6001E00123FB6001F0DBF8FB6818461037BD4680BD6882FF1F7C82FF1F80B400AF034B01221A6000BFBD4680BCCA
:400E4000704700BF7882FF1F80B582B000AF786000F042F8FCE700BF80B582B000AF00237B600CE07A6813469B0013449B00124A1344184600F0F4F97B6801337B607B689F
:400E8000042BEFD90D4800F0EBF90D4800F0E8F90C4800F0E5F90C4800F0E2F90B4800F0DFF90B4B054A1A600A4B054A1A6000BF0837BD4680BD00BF9081FF1FF481FF1F94
:400EC0000882FF1F2482FF1F3882FF1F5082FF1F1C82FF1F2082FF1F80B582B000AF28E0FFF716FD174B1B68002B0CBF01230023DBB27B60FFF71AFD7B68002B19D101F09B
:400F000051F8104BDB68DB683B603B680433184600F02EFA0C4B1B68013B0B4A13600B4B1B68013B094A136001F054F8386800F00FF8064B1B68002BD2D100BF0837BD466C
:400F400080BD00BF3882FF1F6482FF1F4C82FF1F80B582B000AF78607B681B6B184600F03FFF786800F03CFF00BF0837BD4680BD80B483B000AF0E4B1B681B68002B01D10F
:400F8000012300E00023002B04D00A4B4FF0FF321A6008E0064B1B68DB68DB687B607B685B68044A136000BF0C37BD4680BC70471C82FF1F8482FF1F80B584B000AF786080
:400FC0007B68FB607B68002B62D0FB68DA6A324B1B68DB6A9A425BD2FB689B69002B06DB2D4B1B68DB6AC3F10502FB689A61FB685969FB68DA6A13469B0013449B00274A8F
:401000001344994201D1012300E00023002B3AD0FB680433184600F0ABF90346002B15D1FB68DA6A1D4913469B0013449B000B441B68002B0AD1FB68DB6A012202FA03F3E2
:40104000DA43174B1B681340154A1360124B1B68DA6AFB68DA62FB68DB6A01229A40104B1B6813430E4A1360FB68DA6A13469B0013449B00094A1A44FB6804331946104655
:4010800000F01AF904E0044B1B68DA6AFB68DA6200BF1037BD4680BD8C81FF1F9081FF1F6C82FF1F80B584B000AF78607B68BB600023FB607B68002B4FD0BB685B6C5A1EED
:4010C000BB685A64BB68DA6ABB681B6C9A4244D0BB685B6C002B40D1BB680433184600F047F90346002B15D1BB68DA6A1D4913469B0013449B000B441B68002B0AD1BB68F8
:40110000DB6A012202FA03F3DA43174B1B681340154A1360BB681A6CBB68DA62BB68DB6AC3F10502BB689A61BB68DB6A01229A400D4B1B6813430C4A1360BB68DA6A1346C6
:401140009B0013449B00074A1A44BB6804331946104600F0B1F80123FB60FB6818461037BD4680BD9081FF1F6C82FF1F80B400AF074B1B68002B04D0054B1B685A6C013206
:401180005A64034B1B681846BD4680BC704700BF8C81FF1F80B584B000AF78603960294B1B68FB60284B1B680433184600F0E0F80346002B0BD1244B1B68DB6A012202FA8E
:4011C00003F3DA43214B1B681340204A13607B68B3F1FF3F0AD13B68002B07D01A4B1B68043319461A4800F067F826E0FA687B681344BB60144B1B68BA685A60BA68FB6849
:401200009A4209D2134B1A680F4B1B6804331946104600F075F810E00F4B1A680A4B1B6804331946104600F06BF80C4B1B68BA689A4202D2094ABB68136000BF1037BD4670
:4012400080BD00BF6882FF1F8C81FF1F6C82FF1F5082FF1F2082FF1F1C82FF1F8482FF1F80B483B000AF78607B6803F108027B685A607B684FF0FF329A607B6803F1080209
:401280007B68DA607B6803F108027B681A617B6800221A6000BF0C37BD4680BC704700BF80B483B000AF78607B6800221A6100BF0C37BD4680BC704780B485B000AF786046
:4012C00039607B685B68FB603B68FA685A60FB689A683B689A60FB689B683A685A60FB683A689A603B687A681A617B681B685A1C7B681A6000BF1437BD4680BC704700BFDA
:4013000080B485B000AF786039603B681B68BB60BB68B3F1FF3F03D17B681B69FB600CE07B680833FB6002E0FB685B68FB60FB685B681A68BB689A42F6D9FB685A683B6842
:401340005A603B685B683A689A603B68FA689A60FB683A685A603B687A681A617B681B685A1C7B681A6000BF1437BD4680BC704780B485B000AF78607B681B69FB607B6825
:401380005B687A6892689A607B689B687A6852685A60FB685A687B689A4203D17B689A68FB685A607B6800221A61FB681B685A1EFB681A60FB681B6818461437BD4680BC15
:4013C000704700BF80B584B000AF786039607B68FB6000F0E7FDFB681A68FB68DB6BF968096C01FB03F31A44FB685A60FB6800229A63FB681A68FB689A60FB681A68FB68FF
:40140000DB6B013BF968096C01FB03F31A44FB68DA60FB68FF2283F84420FB68FF2283F845203B68002B14D1FB681B69002B1AD0FB6810331846FFF74DFC0346002B12D058
:401440000C4B4FF080521A60BFF34F8FBFF36F8F09E0FB6810331846FFF702FFFB6824331846FFF7FDFE00F0B5FD012318461037BD4680BD04ED00E080B58AB002AFF86069
:40148000B9601346FB71BB68002B02D10023FB6104E0FB68BA6802FB03F3FB61FB694833184600F00BFCB861BB69002B0BD0BB6948337B61FA79BB69009313467A69B9687D
:4014C000F86800F005F8BB6918462037BD4680BD80B584B000AFF860B9607A60FB70BB68002B03D1BB69BA691A6002E0BB697A681A60BB69FA68DA63BB69BA681A640121CA
:40150000B869FFF75FFF00BF1037BD4680BD00BF80B582B000AF78607B68002B0ED07B6800225A607B6800221A607B680022DA60002300220021786800F032F800BF08377C
:40154000BD4680BD80B586B000AF0346FB7101237B6100233B61FB791A4639697869FFF78BFFF860F868FFF7D3FFFB6818461837BD4680BD80B584B000AF78603960022249
:4015800000217868FFF778FFF860FB68002B02D0FB683A689A63FB6818461037BD4680BD80B58AB000AFF860B9607A603B6000237B62FB683B6200F0F5FC3B6A9A6B3B6A87
:4015C000DB6B9A4202D33B68022B29D13A68B968386A00F025FAF8613B6A5B6A002B10D03B6A24331846FFF775FB0346002B13D03F4B4FF080521A60BFF34F8FBFF36F8F7C
:401600000AE0FB69002B07D0394B4FF080521A60BFF34F8FBFF36F8F00F0DCFC012363E07B68002B03D100F0D5FC00235CE07B6A002B06D107F114031846FFF79FFB0123D2
:401640007B6200F0C7FCFFF763F900F0ABFC3B6A93F844305BB2B3F1FF3F03D13B6A002283F844203B6A93F845305BB2B3F1FF3F03D13B6A002283F8452000F0ABFC3A1DE7
:4016800007F1140311461846FFF78EFB0346002B24D1386A00F0BCFA0346002B18D03B6A10337A6811461846FFF7FEFA386A00F047FAFFF73BF90346002B7FF47CAF0C4B07
:4016C0004FF080521A60BFF34F8FBFF36F8F72E7386A00F035FAFFF729F96CE7386A00F02FFAFFF723F9002318462837BD4680BD04ED00E080B58CB000AFF860B9607A6071
:401700003B60FB68BB62EFF311824FF0A00383F31188BFF36F8FBFF34F8FBA617B61BB693B62BB6A9A6BBB6ADB6B9A4202D33B68022B2AD1BB6A93F84530FB773A68B968C5
:40174000B86A00F06DF997F91F30B3F1FF3F12D1BB6A5B6A002B15D0BB6A24331846FFF7B9FA0346002B0DD07B68002B0AD07B6801221A6006E0FB7F0133DBB25AB2BB6AC5
:4017800083F845200123FB6201E00023FB623B6A7B627B6A83F31188FB6A18463037BD4680BD00BF80B58AB000AFF860B9607A603B6000237B62FB683B6200F0F3FB3B6A41
:4017C0009B6BFB61FB69002B46D03B6ADB68BB61B968386A00F08EF93B68002B21D1FB695A1E3B6A9A633B6A1B68002B04D1FFF7BDFC02463B6A5A603B6A1B69002B27D09D
:401800003B6A10331846FFF765FA0346002B1FD04F4B4FF080521A60BFF34F8FBFF36F8F16E03B6ABA69DA603B6A5B6A002B0FD03B6A24331846FFF74DFA0346002B07D0F7
:40184000434B4FF080521A60BFF34F8FBFF36F8F00F0C0FB012377E07B68002B03D100F0B9FB002370E07B6A002B06D107F110031846FFF783FA01237B6200F0ABFBFFF7A0
:4018800047F800F08FFB3B6A93F844305BB2B3F1FF3F03D13B6A002283F844203B6A93F845305BB2B3F1FF3F03D13B6A002283F8452000F08FFB3A1D07F1100311461846C2
:4018C000FFF772FA0346002B31D1386A00F08AF90346002B25D03B6A1B68002B08D100F061FB3B6A5B681846FFF766FB00F072FB3B6A24337A6811461846FFF7D5F9386AA7
:4019000000F01EF9FFF712F80346002B7FF455AF0F4B4FF080521A60BFF34F8FBFF36F8F4BE7386A00F00CF9FFF700F845E7386A00F006F9FEF7FAFF386A00F053F9034607
:40194000002B3FF43AAF002318462837BD4680BD04ED00E080B58CB000AFF860B9607A60FB68BB62EFF311824FF0A00383F31188BFF36F8FBFF34F8F7A613B617B693B62A6
:40198000BB6A9B6BFB61FB69002B2DD0BB6A93F84430FB76B968B86A00F0ACF8FB695A1EBB6A9A6397F91B30B3F1FF3F12D1BB6A1B69002B15D0BB6A10331846FFF78AF912
:4019C0000346002B0DD07B68002B0AD07B6801221A6006E0FB7E0133DBB25AB2BB6A83F844200123FB6201E00023FB623B6A7B627B6A83F31188FB6A18463037BD4680BD3C
:401A000080B584B000AF786000F0CCFA7B689B6BFB6000F0DFFAFB6818461037BD4680BD80B586B000AFF860B9607A6000237B61FB689B6B3B61FB681B6C002B0DD1FB68EC
:401A40001B68002B4DD1FB685B681846FFF72AFB7861FB6800225A6043E07B68002B19D1FB689868FB681B6C1A46B96808F070FEFB689A68FB681B6C1A44FB689A60FB6827
:401A80009A68FB685B689A422BD3FB681A68FB689A6026E0FB68D868FB681B6C1A46B96808F056FEFB68DA68FB681B6C5B421A44FB68DA60FB68DA68FB681B689A4207D21B
:401AC000FB685A68FB681B6C5B421A44FB68DA607B68022B05D13B69002B02D03B69013B3B613B695A1CFB689A637B6918461837BD4680BD80B582B000AF786039607B6887
:401B00001B6C002B18D07B68DA687B681B6C1A447B68DA607B68DA687B685B689A4203D37B681A687B68DA607B68D9687B681B6C1A46386808F00CFE00BF0837BD4680BD34
:401B400080B584B000AF786000F02CFA7B6893F84530FB7311E07B685B6A002B12D07B6824331846FFF7B6F80346002B01D0FFF75FF9FB7B013BDBB2FB7397F90F30002BF2
:401B8000E9DC00E000BF7B68FF2283F8452000F021FA00F007FA7B6893F84430BB7311E07B681B69002B12D07B6810331846FFF791F80346002B01D0FFF73AF9BB7B013B89
:401BC000DBB2BB7397F90E30002BE9DC00E000BF7B68FF2283F8442000F0FCF900BF1037BD4680BD80B584B000AF786000F0DAF97B689B6B002B02D10123FB6001E00023A2
:401C0000FB6000F0E7F9FB6818461037BD4680BD80B584B000AF786000F0C4F97B689A6B7B68DB6B9A4202D10123FB6001E00023FB6000F0CFF9FB6818461037BD4680BDF6
:401C400080B485B000AF78607B689A6B7B68DB6B9A4202D10123FB6001E00023FB60FB6818461437BD4680BC704700BF80B485B000AF786039600023FB6014E00E4AFB685F
:401C800052F83330002B0BD10B49FB683A6841F83320094AFB68DB0013447A685A6005E0FB680133FB60FB68092BE7D900BF1437BD4680BC704700BF9805002080B588B0F0
:401CC00000AF786000237B61FEF722FE404B1B68002B04D100F0BEF83D4B01221A607B68002B0ED008231A467B6813447B607B6803F00703002B04D07B6823F007030833CA
:401D00007B607B68002B57D07B6847F6F772934252D8304BBB612F4B1B68FB6104E0FB69BB61FB691B68FB61FB695A687B689A4203D2FB691B68002BF1D1FB69264A93423D
:401D40003AD0BB691B68082213447B61FB691A68BB691A60FB695A687B68D31A08225200934222D9FA697B681344FB60FB695A687B68D21AFB685A60FB697A685A60FB6822
:401D80005B68BB60134B3B6102E03B691B683B613B691B685A68BB689A42F6D33B691A68FB681A603B69FA681A600C4B1A68FB695B68D31A094A1360FEF7B8FD7B69002B06
:401DC00001D103F071FC7B6918462037BD4680BDA00200209002002098020020CC80FF1F80B586B000AF78607B683B617B68002B27D008235B423A6913443B613B69FB606D
:401E0000FEF786FDFB685B68BB60104B7B6102E07B691B687B617B691B685A68BB689A42F6D37B691A68FB681A607B69FA681A60FB685A68064B1B681344054A1360FEF792
:401E400075FD00BF1837BD4680BD00BF90020020CC80FF1F80B483B000AF0F4B23F007037B600E4A7B6813600C4B00225A600C4B47F6F8725A600A4B00221A607B683B6057
:401E80003B6847F6F8725A603B68054A1A6000BF0C37BD4680BC70479882FF1F900200209802002080B485B000AFF860B9607A60FB68043BFB60FB684FF080721A60FB6845
:401EC000043BFB60BB6823F00102FB681A60FB68043BFB60084AFB681A60FB68143BFB607A68FB681A60FB68203BFB60FB6818461437BD4680BC7047FD1E000080B483B09D
:401F000000AF4FF0A00383F31188BFF36F8FBFF34F8F7B60FEE700BF0000000000000000074B19680868B0E8F00F80F30988BFF36F8F4FF0000080F311884EF00D0E704759
:401F40008C81FF1F00BF00BF06480068006880F3088862B661B6BFF34F8FBFF36F8F00DF00BF00BF08ED00E080B500AF0B4A0B4B1B6843F460031360084A084B1B6843F07C
:401F80006043136000F088F8054B00221A60FFF7DBFFFFF7B3FF0023184680BD20ED00E0D080FF1F80B483B000AF4FF0A00383F31188BFF36F8FBFF34F8F7B60044B1B682A
:401FC0000133034A136000BF0C37BD4680BC7047D080FF1F80B483B000AF094B1B68013B074A1360064B1B68002B04D100237B607B6883F3118800BF0C37BD4680BC7047DE
:40200000D080FF1F000000000000000000000000EFF30980BFF36F8F0D4B1A6820E9F00F10602DE908404FF0A00080F31188FEF7CFFD4FF0000080F31188BDE80840196802
:402040000868B0E8F00F80F30988BFF36F8F70478C81FF1F00BF00BF80B582B000AF4FF0A00383F31188BFF36F8FBFF34F8F3B60FEF702FD0346002B03D0064B4FF08052C6
:402080001A6000237B607B6883F3118800BF0837BD4680BD04ED00E080B400AF054B4BF67F321A60044B07221A6000BFBD4680BC704700BF14E000E010E000E080B584B095
:4020C00002AF7860002202210A20FFF7D5F90246114B1A60104B1B68002B19D00E4B1B680E491846FFF7C2FD002301937B680093094B64220A490B48FDF7C4FF00230193B3
:402100007B680093044B642207490848FDF7BAFF00BF0837BD4680BDAC0200208CA700009CA700009D210000A4A700003121000080B586B000AF78600023FB8100237B619A
:4021400000233B6120E07B68186807F10E0100230022FFF725FA0346012B02D001237B610FE07B69002B08D1FFF71CFF0A4B1B680133094A1360FFF72DFFFB8901339BB2B4
:40218000FB813B6901333B613B69022BDBDDC820FEF76AF9D4E700BFA802002080B586B000AF78600023FB8200233B6122E07B68186807F10E0100230022FFF7F3FA0346F4
:4021C000012B17D1FB89FA8A9A4204D001233B61FB89FB820BE03B69002B08D1FFF7E2FE0A4B1B680133094A1360FFF7F3FEFB8A0133FB827B681B681846FFF701FC0346FA
:40220000002BD4D1B420FEF72FF9CFE7A402002080B483B000AF0C4B1B68002B03D00B4B1B68002B02D100237B6001E001237B60054B00221A60054B00221A607B681846A5
:402240000C37BD4680BC7047A4020020A802002080B584B002AF002204210520FFF70CF978607B68002B2BD017497868FFF7FEFC00230193002300937B6864221349144875
:40228000FDF700FF134B0193012300937B68642211491248FDF7F6FE114B0193022300937B6864220F491048FDF7ECFE0F4B0193032300937B6864220D490E48FDF7E2FE4E
:4022C00000BF0837BD4680BDACA70000C0A70000E5240000EC050020C8A700007D240000E8050020D0A70000F1230000F0050020D8A70000F922000080B584B000AF786085
:402300007B68FB6007F1080101234FF0FF32F868FFF748FA0346012B02D0314B01221A60BB68304A934202D02D4B01221A60F868FFF766FB0346012B02D0294B01221A606A
:402340000023BB6007F1080100230022F868FFF729FA0346012B02D0214B01221A60BB68204A934202D01E4B01221A6007F1080101234FF0FF32F868FFF714FA0346012B68
:4023800002D0174B01221A60BB68174A934202D0134B01221A60F868FFF732FB0346012B02D00F4B01221A600020FEF787F907F1080101234FF0FF32F868FFF7F3F90346B0
:4023C000012B02D0064B01221A60BB68074A934202D0034B01221A600020FEF76FF991E7B00200204433221167452301BBAABBAA80B584B000AF78607B68FB6007F10801B1
:4024000001234FF0FF32F868FFF7CCF90346012B02D0174B01221A60BB68164A934202D0134B01221A60F868FFF7EAFA0346012B02D00F4B01221A600020FEF73FF907F1C5
:40244000080100234FF0FF32F868FFF7ABF90346012B02D0064B01221A60BB68064A934202D0034B01221A600020FEF727F9C5E7B002002067452301BBAABBAA80B584B0D6
:4024800000AF78607B68FB6007F1080101234FF0FF32F868FFF786F90346012B02D00E4B01221A60BB680D4A934202D00A4B01221A60F868FFF7A4FA0346012B02D0064B11
:4024C00001221A60064B1B680133054A13600020FEF7F4F8D8E700BFB002002067452301B402002080B584B000AF78607B68FB60384BBB6007F1080100230022F868FFF716
:402500004FF80346012B02D0334B01221A60F868FFF776FA0346002B02D02F4B01221A602E4BBB6007F1080100230022F868FFF737F80346012B02D0274B01221A600023F7
:40254000BB6007F1080100230022F868FFF72AF90346012B02D0204B01221A600A20FDF783FF1F4B1B681846FEF74CF91D4B1B681846FEF747F91C4B1B681846FEF742F917
:402580001A4BBB6007F1080101230022F868FFF707F80346012B02D00F4B01221A6007F1080101230022F868FFF7FCF80346002B02D0094B01221A600A4B1B681846FEF7CE
:4025C00021F9094B1B681846FEF71CF90A20FDF74BFF8DE744332211B002002067452301EC050020E8050020F0050020BBAABBAA80B400AF0B4B1A680B4B1B689A4202D11A
:402600000A4B01221A60084B1B68064A1360074B1B68002B0CBF01230023DBB21846BD4680BC7047B8020020B4020020B002002080B588B002AF786064237B610C20FFF71F
:402640003DFB38613B69002B39D0032200210120FEF712FF02463B691A603B691B68002B2DD03B691868002300220021FEF798FF0420FFF723FB02463B695A603B695B6834
:40268000FF221A603B6900229A6000230193002300933B6964222D492D48FDF7F3FC00230193002300933B6964222A492848FDF7E9FC3B691B6828491846FFF7D7FA0C201E
:4026C000FFF7FCFAF860FB68002B3AD0032200210120FEF7D1FE0246FB681A60FB681B68002B2ED0FB681868002300220021FEF757FF0420FFF7E2FA0246FB685A60FB684D
:402700005B6840F6FF721A60FB687A699A60002301937B680093FB68642210490C48FDF7B1FC002301937B680093FB6864220C490748FDF7A7FCFB681B680A491846FFF733
:4027400095FA00BF1837BD4680BD00BFE0A7000069270000E8A70000F0A7000000A8000008A8000010A8000080B588B000AF786000237B83FFF716FC3D4B1B883B833C4BE3
:402780001B881BB29BB201339BB21AB2384B1A80FFF720FC7B687B617B695B683B617B699B68002B03D040F6FF73FB6001E0FF23FB607B6918687B699A6800230021FEF715
:4027C000F1FF0346012B45D13B691A68FB689A4201D001237B830023FB610CE03B69FA691A603B691A68FB699A4201D001237B83FB690133FB61FB68FA699A42EED97B6980
:402800001868002300220021FEF7CAFE0346002B01D101237B83B7F91A30002B10D1B7F91830032B0CDCB7F91830124A32F8132012B292B2013292B211B20E4A22F81310F1
:402840007B699A6813469B0013445B001846FDF70BFEAEE77B699B68002BAAD1064B4FF080521A60BFF34F8FBFF36F8FA1E700BFC4020020BC02002004ED00E080B483B0F0
:4028800000AF01233B6000237B6018E0104A7B6832F913200F497B6831F813301BB29A4201D100233B600B4A7B6832F8133019B2074A7B6822F813107B6801337B607B6883
:4028C000032BE3DD3B6818460C37BD4680BC7047C8020020BC02002080B58EB002AF78600123FB620523BB624FF47A737B6200233B620C20FFF7E2F9F86100220221F86A5C
:40290000FEF7BAFD0246FB691A60FB697A6A5A60FB69484A9A600C20FFF7D0F9B861FB691A68BB691A60BB693A6A5A60BB69424A9A60002301937B680093FB6964223F4980
:402940003F48FDF79FFB0023019300230093BB6964223C493C48FDF795FB0C20FFF7AEF9786100220221F86AFEF786FD02467B691A607B693A6A5A607B69344A9A600C206D
:40298000FFF79CF938617B691A683B691A603B697A6A5A603B692E4A9A6000230193002300937B6964222B492548FDF76BFB002301937B6800933B69642227492248FDF7E0
:4029C00061FB0C20FFF77AF9F86000220221B86AFEF752FD0246FB681A60FB687A6A5A60FB681E4A9A600C20FFF768F9B860FB681A68BB681A60BB687A6A5A60BB68184A95
:402A00009A600023019300230093FB68642215490D48FDF737FB0023019300230093BB68642211490648FDF72DFB00BF3037BD4680BD00BFD0020020D802002020A80000BA
:402A4000C52A000028A800006D2A0000DA020020D202002030A8000038A80000DC020020D402002040A8000048A8000080B586B000AF78600023FB810023FB827B683B61DC
:402A80003B6918683B695A6807F10E010023FEF787FD0346012B02D00123FB82F0E7B7F91630002B08D13B699B681A8812B292B2013292B212B21A80FB8901339BB2FB8189
:402AC000DEE700BF80B586B000AF78600023FB820023BB827B683B613B6918683B695A6807F10E010023FEF75DFE0346012BF3D1FB89FA8A9A4204D0FB89FB820123BB828A
:402B0000EAE7B7F91430002B08D13B699B681A8812B292B2013292B212B21A80FB8A0133FB82D9E780B483B000AF01237B6000233B602EE01B4A3B6832F813301AB21A492B
:402B40003B6831F913309A4201D100237B60154A3B6832F8133019B2134A3B6822F81310124A3B6832F813301AB211493B6831F913309A4201D100237B600C4A3B6832F8B1
:402B8000133019B20A4A3B6822F813103B6801333B603B68022BCDDD7B6818460C37BD4680BC7047D0020020E0020020D8020020E802002080B582B002AF002204210520F1
:402BC000FEF75AFC0246114B1A60104B1B68002B19D00E4B1B680E491846FFF747F80023019302230093002364220A490A48FDF749FA0A4B01930123009300236422084926
:402C00000848FDF73FFA00BFBD4680BDF002002050A8000064A80000292C0000F40200206CA80000052F000080B588B000AF786000F0D4F900233B612EE03B690A2202FA05
:402C400003F3FB61FDF700FFB861A94B186807F10C010023FA69FEF7A5FD0346002B02D0A44B01221A60FDF7EFFE0246BB69D31A7B617A69FB699A4202D29E4B01221A60FB
:402C8000FB6903F10F027B699A4202D2994B01221A603B6901333B613B69042BCDDD00233B6110E0924B186807F1100100230022FEF776FC0346012B02D08E4B01221A6027
:402CC0003B6901333B613B69042BEBDD00233B612EE03B690A2202FA03F3FB61FDF7B4FEB861834B186807F110010023FA69FEF757FC0346002B02D07E4B01221A60FDF756
:402D0000A3FE0246BB69D31A7B617A69FB699A4202D2784B01221A60FB6903F10F027B699A4202D2734B01221A603B6901333B613B69042BCDDD704B00221A606F4B1B6889
:402D40001846FDF75FFD02E01420FDF78DFB6A4B1B68552BF8D11420FDF786FB664B00221A6000233B6138E0614B186807F10C0100230022FEF716FD0346012B02D05D4B58
:402D800001221A605A4B186807F1100100230022FEF706FC0346012B02D0564B01221A60554B1B68552B02D1524B01221A60534B1B6804211846FDF7E1FB4F4B1B68552BC6
:402DC00002D14C4B01221A604C4B1B6801211846FDF7D4FB3B6901333B613B69042BC3DD02E01420FDF740FB434B1B68552BF8D11420FDF739FB404B00221A6000233B61A7
:402E000010E03B4B186807F10C0100230022FEF7C9FC0346012B02D0364B01221A603B6901333B613B69042BEBDD344B1B681846FDF7E8FC02E01420FDF716FB2E4B1B68D5
:402E4000552BF8D11420FDF70FFB2B4B00221A6000233B6138E0264B186807F1100100230022FEF79DFB0346012B02D0214B01221A601F4B186807F10C0100230022FEF7A9
:402E800091FC0346012B02D01A4B01221A601A4B1B68552B02D1174B01221A60174B1B6804211846FDF76AFB134B1B68552B02D1104B01221A60114B1B6801211846FDF7C2
:402EC0005DFB3B6901333B613B69042BC3DD02E01420FDF7C9FA084B1B68552BF8D11420FDF7C2FA064B1B680133054A13609FE6F00200200003002004030020F402002002
:402F0000F802002080B586B000AF78600020FDF7D5FBFDF799FD78610023FB602B4B55221A602B4B186807F10C010023AF22FEF737FB0346002B02D0264B01221A60FDF7FB
:402F400083FD02467B69D31A3B613B69AE2B02D8204B01221A603B69BE2B02D91D4B01221A601A4B55221A600020FDF7A7FBFDF76BFD7861154B55221A60154B186807F1E6
:402F80000C010023AF22FEF70DFC0346002B02D0104B01221A60FDF757FD02467B69D31A3B613B69AE2B02D80A4B01221A603B69BE2B02D9074B01221A60044B55221A60F7
:402FC000054B1B680133044A13609FE704030020F002002000030020FC02002080B588B000AF4B23BB6105237B6107233B6103210020FDF7C3FAFDF727FDF860AF20FDF771
:4030000033FAFDF721FDB860BA68FB68D21A3B69AF339A4202D91B4B01221A60FDF714FDB860BB683B600023FB611FE0FB69BA6902FB03F2BB6813447B603B46B969184660
:40304000FDF7C2F9FDF700FD02467B68D21A3B69AF339A4202D90B4B01221A600A4B1B680133094A1360FB690133FB61FA697B699A42DBD302210020FDF780FA00BF20370B
:40308000BD4680BD00030020F802002080B483B000AF01237B60124B1A68124B1B689A4201D100237B60104B1A68104B1B689A4201D100237B600E4B1B68012B01D10023AF
:4030C0007B60094B1B68094A1360054B1B68054A13607B6818460C37BD4680BC704700BFF802002008030020FC0200200C0300200003002080B586B002AFF860B9607A606E
:403100000F4A7B6813601821B86802F063FBFB68013B0022019200930023642209490A48FCF7B0FF00230193FB6800930023642206490748FCF7A6FF00BF1037BD4680BD8F
:403140001403002074A80000553100007CA80000D931000080B584B000AF78604123FB7312E01A4B1B6897F90F100022184602F087FB0346012B04D1154B1B68184602F08C
:403180000DFBFB7B0133FB73FB7B582BE9D9104B1B680021184602F0B1FAFDF755FC03460333BB60BB680B4AA2FB03121209962101FB02F29B1ABB60BB68312B01D83223F2
:4031C000BB60B868FDF750F9C8E700BF1003002014030020B5814E1B80B586B000AF786000233B610023FB604123FB7521E0264B1B6807F10B014FF6FF72184602F024FBBF
:403200000346002B0FD097F90B3097F917209A4206D11E4B1B680133184602F0BFFA02E001233B6109E097F91730DBB20133DBB2FB7597F91730582BD9DD144B1B68013387
:403240000021184602F05AFA3B69012B13D108E00D4B1B6807F10B014FF6FF72184602F0F3FA97F90B30582BF2D1FB680133FB6000233B61B8E7FB68012BB5DC044B1B68C8
:403280000133034A1360AFE710030020140300201803002080B483B000AF094B1B68002B02D100237B6001E001237B60044B00221A607B6818460C37BD4680BC704700BFF2
:4032C0001803002080B582B002AFC821C820FEF751F902461F4B1A601E4BAA225A601D4B00229A600021C820FEF744F90246194BDA60184B00221A61164B00225A61154B0D
:403300001B68002B03D1134BDB68002B1FD0114B1B6811491846FEF7A9FC0E4BDB680F491846FEF7A3FC0023019300230093094B64220B490B48FCF7A5FE002301930023DB
:403340000093094B642209490648FCF79BFE00BFBD4680BD2003002084A8000094A80000A4A80000693400002C030020ACA8000080B584B000AF786039600023002200218F
:403380007868FEF70DF90346012B02D1164B01221A600023FB6013E00023002200217868FEF700FA0346012B02D00F4B01221A603B681B685A1C3B681A60FB680133FB605D
:4033C000FB68C72BE8D90023002200217868FEF7E9F90346012B02D1034B01221A6000BF1037BD4680BD00BF1C03002080B584B000AF786039600023002200217868FEF75F
:40340000D1F90346012B02D1164B01221A600023FB6013E00023002200217868FEF7C0F80346012B02D00F4B01221A603B681B685A1C3B681A60FB680133FB60FB68C72BDA
:40344000E8D90023002200217868FEF7A9F80346012B02D1034B01221A6000BF1037BD4680BD00BF1C03002080B584B000AF78607B68FB60FB685B68AA2B07D1FB681A6852
:40348000FB68083319461046FFF772FFFB681868002300220021FEF785F90346012B02D1094B01221A60FB681A68FB68083319461046FFF79BFFFB681A68FB6808331946B3
:4034C0001046FFF755FFEEE71C03002080B483B000AF01237B60134B1B68002B01D000237B60114B9A68114B1B689A4202D100237B6003E00C4B9B680C4A13600A4B5A6920
:403500000B4B1B689A4202D100237B6003E0064B5B69074A13607B6818460C37BD4680BC704700BF1C03002020030020380300203C03002080B584B002AF7860002301932B
:403540007B6800930023A02208490948FCF79AFDFDF788FA0246074B1A60064B1B680133044A136000BF0837BD4680BDB8A80000C93500004403002080B586B000AF78607C
:40358000C8233B617B68002B03D07B681B687B6101E000237B610223FB605923BB60FB68BA6802FB03F3BB603869FCF75DFF7B69002BF0D00020FCF757FF7869FCF786FE57
:4035C0000020FCF783FEE6E780B586B002AF78604FF47A73FB600020FCF7B6FFB860F868FCF742FF0F4B00221A600E4B0193BB680093002364220C490C48FCF743FD002336
:403600000193BB680093074B642209490748FCF739FD084B1B889BB201339AB2054B1A80DDE700BFF4050020C0A8000079350000C8A800004003002080B582B000AF012332
:403640007B60164B1A88164B1B889BB29A4202D100237B6004E0124B1B889AB20F4B1A80FDF700FA02460F4B1A600E4B1A680E4B1B689A4202D200237B6009E0094B1A681C
:40368000094B1B68D31A0322934201D900237B607B6818460837BD4680BD00BFD480FF1F40030020480300204403002080B582B002AF002204210120FDF7DEFE0246204B4B
:4036C0001A601F4B1B68002B37D01D4B1B681D491846FEF7CBFA1C4B0193002300931B4B64221B491B48FCF7CDFC1B4B019301230093164B642219491948FCF7C3FC002378
:403700000193002300930023642216491648FCF7B9FC00230193002300930023642213491348FCF7AFFC00230193002300930023642210491048FCF7A5FC00BFBD4680BD6C
:40374000F8050020D0A800004C03002054030020E8A80000A937000050030020F0A800007D370000F8A80000DD37000000A90000A138000008A90000E938000080B584B02E
:4037800000AF78607B68FB600020FCF797FFFB681B685A1CFB681A60FB681B68FE2BF6D90020FCF78BFFF2E780B584B000AF78607B68FB600020FCF7C7FEB860BB68013399
:4037C00019460020FCF7DAFEFB681B685A1CFB681A60B9680020FCF7D1FEEFE780B584B000AF78600023BB81294B00221A600023FB8120E0274B1B681846FCF75FFF244B5C
:403800001B68BB60234B1B681846FCF7FBFF8020FCF72AFEFDF77CF81D4B1B68BA689A4201D10123BB81FDF781F8B7F90E309BB201339BB2FB81B7F90E30042BDADD154B97
:403840001B681846FCF73AFF114B00221A60124B1B681846FCF7D6FF0D4B1B68FF2B01D00123BB81B7F90C30002B0AD1FEF79AFB0A4B1B889BB201339AB2084B1A80FEF7E4
:40388000A9FB044B1B681846FCF7BCFFACE700BF540300204C030020500300205803002080B582B000AF7860FDF732F80B4B1868002300220A49FDF773FE0346012B02D03A
:4038C000084B01221A60FDF731F88020FCF7CCFD034B1B680133024A1360E5E7F8050020680300205C03002080B584B000AF7860FDF70EF8FDF70CF8134B186807F10801E7
:4039000000230022FDF74EFFF860FDF70FF80346002B02D00D4B01221A60FDF707F8FB68002BE5D0BA680A4B1B689A4202D0074B01221A60054B1B68012BD9D0044B1B682C
:403940000133034A1360D3E7F8050020600300206403002080B483B000AF01237B60164B1B889AB2154B1B889A4201D100237B60134B1A68134B1B689A4201D100237B60F1
:40398000114B1B68012B01D100237B600F4B1B68012B01D100237B60074B1B889AB2074B1A80074B1B68074A13607B6818460C37BD4680BC704700BF580300206C0300204A
:4039C00064030020700300205C0300206003002080B586B002AF78600023FB600CE0002301937B6800930023642207490748FCF749FBFB680133FB60FB68002BEFDD00BF96
:403A00001037BD4680BD00BF10A90000113A000080B586B000AF7860FEF7C4FA154B1B687B61144B1B680133124A1360FEF7D2FA7B69013340F2E73202FB03F33B613B699C
:403A40005B083B61FDF700F80346FB6007F10C0339691846FCF7B8FC786901F09FFE07F10C0339691846FCF7AFFC786901F096FEECE700BF7403002080B584B002AF786074
:403A8000002301937B680093134B642213491448FCF7F8FA002301937B680093114B642211491248FCF7EEFA002301937B6800930F4B64220F491048FCF7E4FA0023019375
:403AC0007B6800930D4B64220D490E48FCF7DAFA00BF0837BD4680BD7803002018A90000093B00007A03002020A90000113C00007C03002028A90000193D00007E03002007
:403B000030A90000493E0000F0B58FB000AF78600023FB8636A4D4E90034C7E90A3436A4D4E90034C7E9083435A4D4E90034C7E90634D7E90A01D7E908341A46234605F06D
:403B4000A3FF03460C4618462146D7E906341A46234606F04BF903460C46C7E902347B683B6323A4D4E90034C7E90A3422A4D4E90034C7E9083422A4D4E90034C7E906345A
:403B8000D7E90A01D7E908341A46234605F07CFF03460C4618462146D7E906341A46234606F024F903460C46C7E90434D7E90401D7E902341A46234605F064FF03460C46D5
:403BC0001D4624F0004610A3D3E900232846314606F09CFB0346002B01D00123FB86B7F93630002BBDD13B6B01221A80B9E700BF5305A3923ADD5E4082E2C7985B53A240F4
:403C0000B29DEFA7C6B18CC0FCA9F1D24D62503FF0B58FB000AF78600023FB8636A4D4E90034C7E90A3436A4D4E90034C7E9083435A4D4E90034C7E90634D7E90A01D7E978
:403C400008341A46234606F0FBF903460C4618462146D7E906341A46234606F0C7F803460C46C7E902347B683B6323A4D4E90034C7E90A3422A4D4E90034C7E9083422A46C
:403C8000D4E90034C7E90634D7E90A01D7E908341A46234606F0D4F903460C4618462146D7E906341A46234606F0A0F803460C46C7E90434D7E90401D7E902341A4623461E
:403CC00005F0E0FE03460C461D4624F0004610A3D3E900232846314606F018FB0346002B01D00123FB86B7F93630002BBDD13B6B01221A80B9E700BFAE47E17A145678C0AC
:403D0000CDCCCCCC8CBCDF4039D6C56D340000C0FCA9F1D24D62503F2DE9F0418EB000AF78600A23FB6200237B867B68BB62FB6ADB001846FDF7C2FF78624FF000034FF0A8
:403D40000004C7E906344FF000034FF00004C7E9043400237B6329E07B6BDB007A6A02EB0308786B05F0CCFF4FF00002344B05F08BFE03460C46C8E90034786B05F0C0FF49
:403D80004FF000022E4B05F07FFE03460C4618462146D7E906341A46234605F075FE03460C46C7E906347B6B01337B637A6BFB6A9A42D1D300237B6312E07B6BDB007A6A6D
:403DC0001344D3E90001D7E904341A46234605F05BFE03460C46C7E904347B6B01337B637A6BFB6A9A42E8D3D7E90601D7E904341A46234605F046FE03460C46C7E9023402
:403E0000D7E902341D4624F000460BA3D3E900232846314606F07AFA0346002B01D001237B86B7F93230002B87D1BB6A01221A8083E700BFAFF30080FCA9F1D24D62503F21
:403E400000001640000000002DE9F0418EB000AF78600A23FB6200237B867B68BB62FB6ADB001846FDF72AFF78624FF000034FF00004C7E906344FF000034FF00004C7E9F9
:403E8000043400237B6329E07B6BDB007A6A02EB0308786B05F034FF33A3D3E9002305F0A5FF03460C46C8E90034786B05F028FF2DA3D3E9002305F099FF03460C46184616
:403EC0002146D7E906341A46234605F0DDFD03460C46C7E906347B6B01337B637A6BFB6A9A42D1D300237B6312E07B6BDB007A6A1344D3E90001D7E904341A46234605F020
:403F0000C3FD03460C46C7E904347B6B01337B637A6BFB6A9A42E8D3D7E90601D7E904341A46234605F0AEFD03460C46C7E90234D7E902341D4624F000460DA3D3E900237A
:403F40002846314606F0E2F90346002B01D001237B86B7F93230002B87D1BB6A01221A8083E700BFAFF30080E5D022DBF93E2840FCA9F1D24D62503F80B483B000AF01232E
:403F80007B6000233B6011E00D4A3B6832F813309BB2012B02D000237B6004E0084A3B68002122F813103B6801333B603B68032BEADD7B6818460C37BD4680BC704700BF4D
:403FC0007803002080B586B002AF7860002204210520FDF751FAF860FB68002B0DD01D49F868FDF743FE002301937B680093FB68642219491948FCF745F80120FDF7A2FA0F
:40400000B860BB68002B21D01549B868FDF72EFE0023019300230093BB68642211491248FCF730F8114B019302230093002364220F491048FCF726F80F4B019303230093ED
:40404000BB6864220D490E48FCF71CF800BF1037BD4680BD38A9000048A900008540000050A9000060A90000C54500009403002068A90000054600009003002070A900001C
:404080002546000080B586B000AF78607B687B6101230022A2497869FDF782FA7869FDF7AFFC0346012B02D09E4B01221A6007F11001002300227869FDF774FB0346012B0E
:4040C00002D0984B01221A60954B1A683B699A4202D0944B01221A607869FDF791FC0346002B02D08F4B01221A60002300228C497869FDF755FA7869FDF782FC0346012B19
:4041000002D0884B01221A6007F11001002300227869FDF747FB0346012B02D0814B01221A607869FDF76CFC0346002B02D07D4B01221A607A4B1A683B699A4202D0794BE3
:4041400001221A6002233B6109E007F11001002300227869FDF724FA3B6901333B613B69042BF2D97869FDF74BFC0346032B02D06C4B01221A6001233B6107F110010123FF
:4041800000227869FDF70CFA00233B6107F11001012300227869FDF703FA7869FDF730FC0346052B02D05F4B01221A6007F11001012300227869FDF7F3F90346002B02D039
:4041C000584B01221A6007F11001002300227869FDF7E6F90346002B02D0524B01221A6000233B612DE007F10C01012300227869FDF7D8FA0346012B02D04A4B01221A60C6
:404200003A69FB689A4202D0464B01221A60FB68DB43FB6007F10C01002300227869FDF7C1FA0346012B02D03E4B01221A603A69FB689A4202D03B4B01221A603B690133CA
:404240003B613B69042BCED97869FDF7D9FB0346002B02D0334B01221A600A233B6107F11001002300227869FDF79AF90346012B02D02C4B01221A600B233B6107F1100171
:40428000002300227869FDF78BF90346012B02D0244B01221A607869FDF7B2FB0346022B02D0204B01221A6009233B610FE007F11001012300227869FDF772F90346012B80
:4042C00002D0184B01221A603B69013B3B613B69062BECD87869FDF793FB0346052B02D0104B01221A6007F11001012300227869FDF756F90346002B02D00A4B01221A6086
:4043000007F11001002300227869FDF749F90346002B02D0034B01221A6007233B611AE0840300208003002007F10C01002300227869FDF737FA0346012B02D00F4B0122C9
:404340001A603A69FB689A4202D00C4B01221A603B6901333B613B690B2BE5D97869FDF74FFB0346002B02D0044B01221A60044B1B680133024A13608AE600BF8003002027
:404380008403002080B582B000AF786039600023002200217868FDF705FA0346012B02D0404B01221A60404B00221A600020FCF7CBF80346002B02D03A4B01221A603B4B3C
:4043C0001B681846FCF71EFA0020FCF7BDF80346032B02D0334B01221A6001210020FCF7CDF80020FCF7B0F80346032B02D02D4B01221A602E4B1B681846FCF703FA2A4BD3
:404400001B68002B02D0274B01221A600023002200213868FDF7C6F90346012B02D0214B01221A600023002200217868FDF7B8F80346012B02D01B4B01221A601A4B1B68C8
:40444000002B02D0174B01221A600020FCF77CF80346032B02D0134B01221A600023002200213868FDF79CF80346012B02D00D4B01221A600C4B1B68012B02D0094B01225C
:404480001A600020FCF760F80346012B02D0054B01221A6000210020FCF770F800BF0837BD4680BD800300208C030020900300209403002080B582B000AF786039600023A3
:4044C000002200217868FDF76DF90346012B02D0384B01221A60384B00221A600020FCF733F80346002B02D0324B01221A60334B1B681846FCF786F90020FCF725F80346D1
:40450000032B02D02B4B01221A602D4B1B681846FCF778F9284B1B68002B02D0254B01221A600023002200213868FDF73BF90346012B02D01F4B01221A60002300220021C9
:404540003868FDF72DF80346012B02D0194B01221A60194B1B68002B02D0164B01221A600020FBF7F1FF0346032B02D0114B01221A600023002200217868FDF711F8034688
:40458000012B02D00B4B01221A600B4B1B68012B02D0084B01221A600020FBF7D5FF0346002B02D0034B01221A6000BF0837BD4680BD00BF800300208C030020900300202A
:4045C0009403002080B584B000AF78607B68FB600120FCF7B7FFB860B968F868FFF7D2FE074B1B680133064A1360B968F868FFF761FF034B1B680133014A1360ECE700BFB5
:404600008803002080B582B000AF78600020FCF755F8034B1B680133014A1360F6E700BF8C03002080B584B000AF78607B68FB600020FCF743F800234FF0FF320021F868E3
:40464000FDF7B0F80346012B02D0084B01221A60002300220021F868FCF7A2FF0346012BE6D0024B01221A60E2E700BF8003002080B400AF124B1A68124B1B689A4202D17C
:40468000114B01221A60114B1A68114B1B689A4202D10D4B01221A600A4B1B68084A13600B4B1B68094A1360074B1B68002B0CBF01230023DBB21846BD4680BC704700BFB2
:4046C0009803002084030020800300209C0300208803002080B586B002AF78600023FB8114E0B7F90E309B000C4A1A44002301937B6800931346642209490A48FBF7C2FC27
:40470000B7F90E309BB201339BB2FB81B7F90E30002BE6DD00BF1037BD4680BDA003002078A900002947000080B586B000AF78600023FB827B683B617B23FB60FB6803F566
:4047400065334733FB60FB681A469B00D31AFB60FB680D4A82FB03121A449210DB17D31AFB60FB68094A934201D00123FB82B7F91630002BE0D1FDF715FC3B6901221A608B
:40478000FDF728FCD8E700BF932449921B77FEFF80B483B000AF01237B6000237B8014E0B7F902300E4A52F82330002B01D100237B60B7F902300A4A002142F82310B7F9D5
:4047C00002309BB201339BB27B80B7F90230002BE6DD7B6818460C37BD4680BC704700BFA003002080B582B002AF2D4B019303230093012364222B492B48FBF743FC2B4BDD
:404800000193032300930223642229492648FBF739FC00230193002300930023642225492548FBF72FFC254B0193032300930123642223492348FBF725FC234B01930323F2
:4048400000930223642221492148FBF71BFC0023019300230093002364221E491E48FBF711FC002204210A20FCF706FE02461B4B1A60002204210A20FCF7FEFD0246184BA2
:404880001A60164B1B6817491846FDF7EFF9144B1B6815491846FDF7E9F900BFBD4680BD0406002080A9000095490000FC05002088A9000090A90000054B0000000600205B
:4048C00098A90000B54B000008060020A0A90000FD4C0000A8A90000A54D0000A8030020A4030020B0A90000C0A9000080B582B000AF786039607B68C72B10D80A4A7B68A5
:4049000013441B78002B03D040F2111000F02EF83B68D9B2044A7B6813440A461A7000BF0837BD4680BD00BF9404002080B582B000AF786039607B68C72B10D80A4A7B6866
:4049400013441B78002B03D04FF4917000F00EF83B68D9B2044A7B6813440A461A7000BF0837BD4680BD00BFCC03002080B483B000AF7860054A7B681360054B00221A601A
:4049800000BF0C37BD4680BC704700BFBC030020D880FF1F80B58AB000AF786000237B6100233B617B68012B01D100F0B7FC4F4B186807F10C0100238C22FCF7F3FE034696
:4049C000012B04D040F24510FFF7D0FF05E0FB687A6811461846FFF7A9FF454B4FF080521A60BFF34F8FBFF36F8F7B68012BDED1404B1B68FA2BDAD93F4B1B681846FBF792
:404A00005DFE00233B620023FB610023BB6101237B622AE0394A7B6A13441B78002B04D14FF4B270FFF7A2FF1CE0344A7B6A13441B78012B03D13B6A01333B6212E02F4A1A
:404A40007B6A13441B78022B03D1FB690133FB6108E02A4A7B6A13441B78052B02D1BB690133BB617B6A01337B627B6AC72BD1D93B6A042B0AD87B6901337B617B69022B9E
:404A800006D940F27F10FFF771FF01E000237B61FB69042B0AD83B6901333B613B69022B06D940F28D10FFF761FF01E000233B61BB69002B03D140F29710FFF757FFC82280
:404AC00000210E4805F04FFE0D4B1B6801330C4A1360084B00221A600020FBF7EFFD064B1B681846FBF78EFE61E700BFA403002004ED00E0C4030020FC050020CC030020F2
:404B0000AC03002080B584B000AF7860254B186807F1080100230122FCF744FE0346002B1BD0214B1B681846FBF7C2FC0346032B03D040F2BD10FFF719FFBB6803211846F2
:404B4000FFF7F4FE184B1B681846FBF75BFE174B1B680133154A1360D8E704210020FBF70DFDFDF71FFA124B1B680133104A13600F4B1B68FB60FDF72DFA0A4B186807F1C5
:404B80000C0100234FF0FF32FCF70AFD0346012B03D040F2D510FFF7E9FE00210020FBF7EDFCB3E7A403002004060020B4030020C403002080B586B000AF786000237B61C9
:404BC00016E0FDF7EFF9464B1B680133444A1360434B1B68FB60FDF7FDF9424B186807F10C0100238C22FCF7DBFC7B6901337B617B69042BE5D9FDF7D5F9394B1B680133D5
:404C0000374A1360364B1B68FB60FDF7E3F9354B186807F10C0100238C22FCF7C1FC0346012B03D04FF40070FFF7A0FE2E4B4FF080521A60BFF34F8FBFF36F8FFB68FA2B70
:404C4000D9D98C20FBF710FC284B1B681846FBF735FD274B1B68012B03D140F21320FFF785FE234B01221A6000233B6101237B6116E0204A7B6913441B78002B04D140F263
:404C80002320FFF773FE08E01A4A7B6913441B78052B02D13B6901333B617B6901337B617B69C72BE5D93B69002B03D140F22F20FFF75CFEC82200210E4805F054FD0E4BBD
:404CC0001B6801330C4A1360054B00221A600020FBF7F4FC054B1B681846FBF793FD8AE7C8030020A803002004ED00E008060020C003002094040020B003002080B584B096
:404D000000AF78600023FB6016E0FDF74BF9214B1B6801331F4A13601E4B1B68BB60FDF759F91D4B186807F1080100238C22FCF737FCFB680133FB60FB68042BE5D9FDF7DE
:404D400031F9144B1B680133124A1360114B1B68BB60FDF73FF9104B186807F1080100238C22FCF71DFC0346012B07D00B4B1B68012B03D04FF41A70FFF7F8FD074B0022F5
:404D80001A60074B4FF080521A60BFF34F8FBFF36F8FD4E7C8030020A8030020C003002004ED00E080B584B000AF786042F20F73BB60204B186807F1080100230122FCF751
:404DC000EFFB0346002B16D01B4B1B681846FBF76FFB0346032B03D040F28120FFF7C6FD154B1B681846FBF70DFD144B1B680133124A1360DDE704210020FBF7BFFB0D4BC7
:404E0000186807F10C0100234FF0FF32FCF7CAFC0346012B04D040F28F20FFF7A7FD04E0FB6803211846FFF761FD00210020FBF7A5FBBEE7A803002000060020B80300207C
:404E400080B58EB000AF00237B60664B1B680133644A1360634B1B6803F00103002B00F08E80614B1B681846FCF7EAFE0346012B26D0EFF311824FF0A00383F31188BFF34D
:404E80006F8FBFF34F8F7A613B617B693B63574B1B680133554A1360534B18683A1D00235249FCF727FC0346012B04D04F4B1B68013B4E4A13603B6B7B637B6B83F3118891
:404EC000494B1B681846FCF7BBFE0346012B26D0EFF311824FF0A00383F31188BFF36F8FBFF34F8FFA62FB60FB6A7B623F4B1B6801333E4A13603C4B18683A1D00233B4946
:404F0000FCF7F8FB0346012B04D0384B1B68013B364A13607B6ABB62BB6A83F31188324B1B681846FCF78CFE0346012B54D0EFF311824FF0A00383F31188BFF36F8FBFF39B
:404F40004F8F3A62BB603B6ABB61284B1B680133264A1360244B18683A1D00232349FCF7C9FB0346012B04D0204B1B68013B1F4A1360BB69FB61FB6983F311882CE01C4B8D
:404F80001B683A1D39461846FCF7E4FC0346012B04D13B6805211846FFF7A8FC144B1B683A1D39461846FCF7D5FC0346012B04D13B6805211846FFF799FC0D4B1B683A1D54
:404FC00039461846FCF7C6FC0346012B04D13B6805211846FFF78AFC7B6818463837BD4680BD00BF5C050020A4030020C4030020A803002080B596B000AF00233B609A4BBC
:405000001B680133984A1360974B1B6803F00103002B00F08780954B1B681846FCF710FE0346012B26D0EFF311824FF0A00383F31188BFF36F8FBFF34F8FFA61BB61FB6938
:405040003B658B4B1B680133894A1360874B18683A4600238649FCF74DFB0346012B04D0834B1B68013B824A13603B6D7B657B6D83F311887D4B1B681846FCF7E1FD034667
:40508000012B26D0EFF311824FF0A00383F31188BFF36F8FBFF34F8FFA647B61FB6C7B64734B1B680133724A1360704B18683A4600236F49FCF71EFB0346012B04D06C4B62
:4050C0001B68013B6A4A13607B6CBB64BB6C83F31188664B1B683A46391D1846FCF73AFC0346012B04D04FF43270FFF73FFC04E07B6805211846FFF719FC5C4B1B683A469E
:40510000391D1846FCF726FC0346012B04D040F2C920FFF72BFCA1E07B6805211846FFF705FC9BE0534B1B683A46391D1846FCF711FC0346012B04D17B6805211846FFF7CF
:40514000D5FB4C4B1B681846FCF77AFD0346012B26D0EFF311824FF0A00383F31188BFF36F8FBFF34F8F3A643B613B6CBB63424B1B680133404A13603E4B18683A46002380
:405180003D49FCF7B7FA0346012B04D03A4B1B68013B394A1360BB6BFB63FB6B83F31188344B1B681846FCF74BFD0346012B26D0EFF311824FF0A00383F31188BFF36F8F2D
:4051C000BFF34F8F7A63FB607B6BFB622A4B1B680133294A1360274B18683A4600232649FCF788FA0346012B04D0234B1B68013B214A1360FB6A3B633B6B83F311881D4BA5
:405200001B681846FCF71CFD0346012B26D0EFF311824FF0A00383F31188BFF36F8FBFF34F8FBA62BB60BB6A3B62134B1B680133114A13600F4B18683A4600230E49FCF7CD
:4052400059FA0346012B04D00B4B1B68013B0A4A13603B6A7B627B6A83F311883B6818465837BD4680BD00BF60050020A4030020C4030020A8030020C803002080B500AFE4
:405280001D4B1A681D4B1B689A4203D140F2E220FFF76CFB184B1B68184A1360184B1A68184B1B689A4203D140F2EA20FFF75EFB134B1B68134A1360134B1A68134B1B68A5
:4052C0009A4203D140F2F220FFF750FB0E4B1B680E4A13600E4B1A680E4B1B689A4203D140F2FA20FFF742FB094B1B68094A1360094B1B68184680BDAC0300206405002085
:40530000B003002068050020B40300206C050020B803002070050020D880FF1F80B500AFFCF740FE01F000FF054801F0AFFE04F083F8044804F032F8FCF74CFE00BF80BDBD
:40534000495300007153000080B500AFFFF778FD0346002B07D0054B4FF080521A60BFF34F8FBFF36F8F00BF80BD00BF04ED00E080B500AFFFF73EFE0346002B07D0054BDB
:405380004FF080521A60BFF34F8FBFF36F8F00BF80BD00BF04ED00E080B582B002AF00F03FF80220FDF798FAFDF704FCFDF78AFFFEF77CF90020FEF75FFB0020FEF702FE50
:4053C0000020FFF787F90220FCF778FEFCF740FF0120FDF72DF90220FEF7FAFA012001F011F903224FF461410120FDF783FEFFF7F9F9002301930323009300234FF47A72AE
:4054000005490648FAF73EFE00F002FB0320FEF791F8FBF747FAFEE7D0A90000C154000080B500AF0B4B0C4ADA620A4B0B4A9A63084B0B4ADA6301F09DFB00F047F901F06D
:4054400053FD03F0D9FE04F077F804F07BF900BF80BD00BF0080FF1F211F0000112000005920000080B485B000AF78600B46FB707B68FB60FB681B68591CFA681160FA787A
:405480001A7000BF1437BD4680BC70470EB480B585B000AF786007F12003FB60391DFB68FA69064800F046FC7B6800221A7000BF1437BD46BDE8804003B070476554000079
:4054C00080B5A6B000AF78600023BB600023A7F896300023C7F890300023C7F88C30FBF7B3FA0346BB6007F1080341F288311846FAF76AFFFDF716FB0346012B05D0B7F8EC
:40550000963043F00103A7F89630FDF7BFFD0346012B05D0B7F8963043F00203A7F89630FDF7D4FF0346012B05D0B7F8963043F00403A7F89630FEF77FF80346012B05D022
:40554000B7F8963043F00803A7F89630FEF702FA0346012B05D0B7F8963043F01003A7F89630FEF709FD0346012B05D0B7F8963043F02003A7F89630FFF77AF80346012B66
:4055800005D0B7F8963043F04003A7F89630FFF7FFF80346012B05D0B7F8963043F08003A7F89630FCF734FE0346012B05D0B7F8963043F48073A7F89630FDF719F803463E
:4055C000012B05D0B7F8963043F40073A7F89630FDF754F90346012B05D0B7F8963043F48063A7F89630FDF755FE0346012B05D0B7F8963043F40063A7F89630FFF73EFE70
:405600000346012B05D0B7F8963043F48053A7F89630B7F89630002B1AD1164B1B881A4613469B0013449B00C7F88C30D7F89020531CC7F8903007F10C00D7F88C300E4999
:40564000FFF724FF07F10C03184600F0AFFF4AE7D7F89020531CC7F89030B7F8963007F10C000649FFF712FF07F10C03184600F09DFF38E780050020E8A9000004AA0000AD
:4056800080B485B000AF786039604FF0A00383F31188BFF36F8FBFF34F8FFB6000BF1437BD4680BC704700BF80B483B000AF4FF0A00383F31188BFF36F8FBFF34F8F7B60F4
:4056C00000BF0C37BD4680BC704700BF80B483B000AF00237B6007E0074A7B68134400221A707B6801337B607B68032BF4DD00BF0C37BD4680BC70477405002080B582B0F5
:4057000000AF78603960FCF74DFC7B68032B2FD801A252F823F000BF295700003B5700004D5700005F5700003B68DBB203F00103DBB2184601F0EAFA1BE03B68DBB203F0C5
:405740000103DBB2184601F0FFFA12E03B68DBB203F00103DBB2184603F012FD09E03B68DBB203F00103DBB2184603F027FD00E000BFFCF72FFC7B68032B09D83B68DBB259
:4057800003F00103D9B2044A7B6813440A461A7000BF0837BD4680BD7405002080B582B000AF78607B68032B0DD8094A7B6813441B78DBB2002B0CBF01230023DBB2194674
:4057C0007868FFF79BFF00BF0837BD4680BD00BF7405002080B582B000AF78603960002201213868FBF748FE0246134B1A6001F06FFB124801F01EFB002201213868FBF74B
:405800003BFE02460E4B1A6001F008FB0D4801F0B7FA002001F044FA094B1B68002B05D0054B1B68002B01D0012300E0002318460837BD4680BD00BF7C050020D1580000A7
:40584000780500206159000080B586B000AFF860B9607A6000237B61084B186800237A68B968FBF79FFF0346012B01D101237B617B6918461837BD4680BD00BF7C0500206C
:4058800080B586B000AFF8600B467A60FB7200237B610E4B186807F10B0100237A68FBF77FFE0346012B02D101237B6101E000237B61FCF777FB032001F0F2F9FCF78AFB8A
:4058C0007B6918461837BD4680BD00BF7805002080B586B000AF00237B600023FB700023BB7000237B6101F0A7F90346FB70FB78DBB203F02003002B1ED001F0AFF9034632
:405900005BB2BB70EFF311824FF0A00383F31188BFF36F8FBFF34F8FFA60BB60FB687B610D4B18683A1DB91C0023FBF7E3FE7B693B613B6983F311887B68002B07D0074B71
:405940004FF080521A60BFF34F8FBFF36F8F00BF1837BD4680BD00BF7C05002004ED00E080B586B000AF00237B600023FB700023BB7000237B6101F0A3F90346FB70FB7836
:40598000DBB203F00103002B05D1FB78DBB203F00203002B29D0EFF311824FF0A00383F31188BFF36F8FBFF34F8FFA60BB60FB687B61154B1B683A1DB91C1846FBF7CAFFC4
:4059C0000346012B09D197F90230DBB2184601F083F9012001F064F902E0002001F060F97B693B613B6983F311887B68002B07D0064B4FF080521A60BFF34F8FBFF36F8F4F
:405A000000BF1837BD4680BD7805002004ED00E080B500AF024803F0D3FD00BF80BD00BF255A000080B582B000AF03F0CFFE0346FB80134B1B88042B14D9124B1A88FB8846
:405A4000D31ABB80104B1B88BA889A4210D90E4ABB8813800C4B1B88A3F516639AB20B4B1A8005E0064B1B8801339AB2044B1A80044AFB88138000BF0837BD4680BD00BFE1
:405A80008205002084050020860500208005002080B485B000AF786050E07B6893F87B30082B0FD0102B19D0022B23D17B681B68DBB203F00103FB737B681B685A087B68B3
:405AC0001A602DE07B681B68DBB203F00703FB737B681B68DA087B681A6021E07B681B68DBB203F00F03FB737B681B681A097B681A6015E07B681968184BA3FB0123DA086F
:405B000013469B0013445B00CA1A1346FB737B681B68124AA2FB0323DA087B681A6000BF7B689B68591E7A689160FA7B0C498A5C1A707B681B6A5A1C7B681A627B685B6A42
:405B4000591E7A685162002BA7DC7B681B68002BA3D100BF1437BD4680BC7047CDCCCCCC38AA00002DE9B04384B000AF786067E07B6893F87B30082B14D0102B24D0022BBC
:405B800036D17B68D3E90023D3B203F00103FB737B68D3E900235B084FEA32027968C1E900233FE07B68D3E90023D3B203F00703FB737B68D3E90023D40844EA4374DD08B9
:405BC0007B68C3E900452DE07B68D3E90023D3B203F00F03FB737B68D3E900234FEA121848EA03784FEA13197B68C3E9008919E07B68D3E900014FF00A024FF0000304F0A1
:405C0000AFFB1346FB737B68D3E900014FF00A024FF0000304F0A4FB02460B467968C1E9002300BF7B689B68591E7A689160FA7B0C498A5C1A707B681B6A5A1C7B681A6286
:405C40007B685B6A591E7A685162002B90DC7B68D3E9002313438BD100BF1037BD46BDE8B08300BF38AA000080B485B000AF78607B68FB6002E0FB680133FB60FB681B78EB
:405C8000002BF8D1FA687B68D31A18461437BD4680BC704780B588B000AFF860B9607A603B600023FB610023BB611BE0BB697A6813441B78FB75BB6A002B08D0FB7D602BD9
:405CC00005D9FB7D7A2B02D8FB7D203BFB75FA7DFB681146B8689847FB690133FB61BB690133BB61BA693B689A42DFDBFB6918462037BD4680BD00BF80B586B000AFF8600E
:405D0000B9603B601346FB7100237B6107E0FA79FB681146B86898477B6901337B613B685A1E3A60002BF2DC7B6918461837BD4680BD00BF2DE9B043A8B002AFF860B96023
:405D40007A603B600023FB63002387F88D3000F021BC7B685A1C7A601B7887F8933097F893301F2B03D997F893307A2B03D90023C7F8943008E097F89330203BC34AD35C37
:405D800003F00F03C7F89430D7F89430DB0097F88D201344BD4AD35C1B09DBB287F88D3097F88D30013B062B10D801A252F823F0E15D0000AD5E0000FD5D000095650000F9
:405DC000295E00005D5E0000355F000097F89320FB681146B8689847FB6B0133FB63D9E300237B637B6BBB63BB6B7B647B6C3B633B6B3B64202387F88C30CBE397F89330CC
:405E00002A2B05D13B681A1D3A601B68BB63C1E3BA6B13469B0013445B001A4697F89330303B1344BB63B5E33B6C43F004033B6497F893302A2B05D13B681A1D3A601B6895
:405E40007B63A7E37A6B13469B0013445B001A4697F89330303B13447B639BE397F893306C2B0BD07A2B00D01FE03B6C23F003033B643B6C43F002033B6416E03B6C03F0BA
:405E80000303012B08D13B6C23F003033B643B6C43F003033B6407E03B6C23F003033B643B6C43F001033B6400BF73E397F89330203B102B3CD801A252F823F0135F0000B3
:405EC000315F0000315F00001D5F0000315F0000315F0000315F0000315F0000315F0000315F0000315F0000275F0000315F0000015F0000315F0000315F00000B5F000016
:405F00003B6C43F008033B6413E0302387F88C300FE03B6C43F010033B640AE03B6C43F020033B6405E03B6C43F040033B6400E000BF2FE397F89330423B362B70D801A2EE
:405F400052F823F00B63000035610000216000002160000021600000216000002160000021600000216000002160000021600000216000002160000021600000276000002D
:405F800021600000216000000B61000021600000216000002160000021600000B7600000216000002160000021600000216000002160000021600000216000002160000050
:405FC000216000005F6000003D610000EB60000021600000596100002160000021600000EB6000002160000021600000216000002160000021600000916000002F600000EB
:4060000021600000216000001361000021600000FB6000002160000021600000BF60000000233B6388E13B6C43F080033B643B6C23F003033B643B6C43F4007343F00203DF
:406040003B64102387F88B3008237B632D2387F848303E2387F8493002237B646CE13B6C43F400733B64022387F88B303B6C03F02003002B00F05B81302387F84830622348
:4060800087F8493002237B6451E100BF4CAA00003B6C43F400733B64082387F88B303B6C03F02003002B00F04481302387F8483001237B643DE13B6C43F080033B643B6CFD
:4060C00043F400733B64102387F88B303B6C03F02003002B00F02F81302387F84830782387F8493002237B6425E13B6C43F440733B640A2387F88B301EE13B6C43F4007394
:406100003B640A2387F88B3016E13B6C43F080033B643B681A1D3A601B68BB61BB69002B01D1A94BBB61BB691846FFF79DFD03463B6301E13B6C43F080033B6407F1100340
:406140003A33BB613B681A1D3A601B68DBB287F84A3001233B63EFE03B6C03F00403002B01D106237B633B68073323F0070303F108023A60D3E90023C7E908234FF0000256
:40618000924BC7E904230023C7F894300FE0D7E904014FF000028E4B03F052FF02460B46C7E90423D7F894300133C7F894307A6BD7F894309A42EADCD7E908014FF0000295
:4061C0004FF0000304F084F80346002B31D03B6C43F480633B64D7E90801D7E9042303F051FC02460B46C7E90823D7E908231046194604F0CDF802460B46C7E90A23D7E925
:406200000889D7E90A231046194603F0C1FD02460B464046494603F035FC02460B46C7E90823D7E90823144683F00045C7E9084525E0D7E90801D7E9042303F025FC024629
:406240000B46C7E90823D7E908231046194604F09FF802460B46C7E90A23D7E90889D7E90A231046194603F08BFD02460B464046494603F007FC02460B46C7E908230023A8
:40628000C7F894300FE0D7E908014FF00002504B03F0ACFD02460B46C7E90823D7F894300133C7F894307A6BD7F894309A42EADCD7E908231046194604F032F803463B61B0
:4062C00007F110033A334033BB610A2387F88B307B6B002B0CD007F110031846FFF7D8FBBB695A1EBA612E221A703B6B01333B633B6C43F4D85343F003033B6400237B6326
:40630000D7E90A23C7E9042316E03B681A1D3A601B68002B02D02F4BBB6101E02E4BBB61BB691846FFF7A0FC03463B6304E000BF02E000BF00E000BF3B6C03F40073002B89
:4063400000F0D9807B6B002B01D101237B633B6C03F40063002B4DD13B6C03F00303032B48D801A252F823F0A76300008563000079630000DD6300003B681A1D3A601B68B2
:406380003B6137E03B6C03F48073002B05D03B681A1D3A601B683B612CE03B681A1D3A601B683B6126E03B6C03F48073002B05D03B681A1D3A601B683B611BE03B681A1D68
:4063C0003A601B683B6115E020AA00000000E03F0000244028AA000030AA00003B68073323F0070303F108023A60D3E90023C7E9042300BF3B6C03F02003002B04D03B698F
:40640000002B01D100237B643B6C03F48073002B2FD03B6C03F00303032B11D1D7E90423002A73F1000315DAD7E90423524263EB4303C7E904233B6C43F480633B6409E05C
:406440003B69002B06DA3B695B423B613B6C43F480633B643B6C03F48063002B09D13B6C03F01003002B04D0202387F8483001237B643B6C03F48053002B04D107F1100345
:406480003A334033BB613B6C03F00303032B05D107F110031846FFF765FB04E007F110031846FFF7F5FABB690133BB613B6C03F48863002B28D03B6C03F48063002B01D0AE
:4064C0002D2300E02B2387F8933097F88C30302B06D101237B6497F8933087F8483013E0BB69013BBB61BB6997F893201A703B6B01333B6308E0BB6B002B05D03A6BBB6B63
:406500009A4201DDBB6B3B63BA6B396B7B6C0B44D31ABB63796C3B6C03F0800307F11002383200930B46B968F868FFF7B3FB0246FB6B1344FB633B6C03F00803002B0AD146
:4065400097F88C20BB6BB968F868FFF7D5FB0246FB6B1344FB63BA69396B3B6C03F0800300930B46B968F868FFF794FB0246FB6B1344FB633B6C03F00803002B0AD097F8A6
:406580008C20BB6BB968F868FFF7B6FB0246FB6B1344FB637B681B78002B7FF4DAABFB6B18469837BD46BDE8B08300BF80B582B000AF786000F068FF0346002B1CD0104BB8
:4065C000186800234FF0FF320021FBF7EBF803E064231846F9F748FF01F0BCF90346002BF6D0786801F048F9054B1868002300220021FAF7D5FF00E000BF0837BD4680BD88
:406600000C06002080B584B002AF78600120FAF799FF0246074B1A60002301937B6800930023642204490548F9F72CFD00BF0837BD4680BD0C060020B0AA0000416600007E
:4066400080B582B000AF78600121002000F078FD00F026FF0346002B06D000F015FF0346002B01D001F09EF800F00EFF0346002B04D041F288331846F9F7F6FE64231846FC
:40668000F9F7F2FEE4E700BF80B582B000AF786039603A680021786804F065F800BF0837BD4680BD80B584B000AFF860B9607A607A68B968F86804F04BF800BF1037BD46B1
:4066C00080BD00BF80B483B000AF0346FB71FEE780B487B000AF7860396000233B6100237B6127E07B699B007A6813441B68BB60BB68FB73BB6823F0FF03BB6014E03B69CC
:406700005B003A6813441B781A46BB68134419463B695B003A6813445B780B703B6901333B61FB7B013BFB73FB7B002BE7D17B6901337B617B691D2BD4D900BF1C37BD4624
:4067400080BC704780B582B000AF334B2F221A80324B18221A70324B67221A80314B18221A70314B06221A70304B52221A70304B304A1278D2B21A702F4B4FF4E2621A80B7
:406780002E4B41F251221A800023FB7019237B6014E0FB785B00DAB2294B1B78DBB203F00103DBB21343DBB203F00303FB704FF4F07003F015F97B68013B7B607B68002B22
:4067C00002D0FB78032BE4D17B68002B02D10320FFF778FF1B4B4FF480721A80194B07221A70194B00221A70184B48221A70154B00221A70164B00221A70164B02221A7025
:40680000154A154B1B78DBB243F00303DBB2137000BF0837BD4680BD804000408240004084400040864000400043004000420040A14600400F01004922420040204200401B
:40684000254200400440004006400040084000400940004001400040A243004080B483B000AF0B4B1B78FB710A4AFB7903F00703DBB21370084AFB791B09DBB21370074B24
:4068800044221A7000BF0C37BD4680BC704700BFCF0100496E5800406F5800407658004080B586B000AF72B64E4A4E4B1B78DBB243F00403DBB213700023FB7513E0FA7D23
:4068C00013465B0013445B00474A13443B613B691A683B699B889BB219461046FFF7D4FEFB7D0133FB75FB7D072BE8D90023FB751CE0FA7D13469B0013445B003B4A1344E8
:40690000FB60FB681B68BB60FB685B687B60FB681A7A5B7A1B0213437B807B881A467968B868FFF7BFFEFB7D0133FB75FB7D002BDFD02F494FF09040FFF7CAFE2D4A2D4B07
:406940001B78DBB243F00203DBB213702A4A2A4B1B78DBB243F00203DBB21370274A274B1B78DBB243F04003DBB21370244A244B1B78DBB243F01003DBB2137008222149EE
:406980002148FFF78FFE082220492148FFF78AFE0A2220492048FFF785FE08221F492048FFF780FE0A221F491F48FFF77BFE1F4A1E4B1B78DBB243F00803DBB213701C4B7C
:4069C00061221A70FFF7BEFE194BC1221A70FFF745FF0E2209491748FFF764FE00BF1837BD4680BDE8460040BCAA0000ECAA0000780000480350014013500140A0430040C1
:406A0000C2430040780500480251004080050048C251004088050048F051004094050048125100409C050048205100402243004000480040B043004080B500AF03F05CFE94
:406A400003461B680C2B00D1FEE7FEE780B586B000AF224B7B61224B3B61204B7B6135E03B691B68FB603B695B68BB603B699B683B6000237B600CE0FB681A68BB681A60FE
:406A8000BB680433BB60FB680433FB607B6804337B607A683B689A42EED13B69DB683B6000237B6008E0BB6800221A60BB680433BB607B6804337B607A683B689A42F2D1A2
:406AC0003B6910333B617B69013B7B617B69002BC6D103F017FEFEF75FFCFEE70100000094AC000080B582B000AF184B184A1A60184A184B1B6843F40073136000237B603B
:406B00000FE07B68032B04D8134A7B6852F8233000E0124B12497A6841F822307B6801337B607B682F2BECD90E4B1B78DAB20E4B1A700E4B0A4A1A60FFF7B2FE0C4B002202
:406B40001A6000BF0837BD4680BD00BF0CED00E00004FA0514ED00E000000000396A00000080FF1FBC760040C480FF1F08ED00E0C080FF1F80B500AF064B1B78002B04D1D1
:406B800000F00AF8034B01221A7000F025F800BF80BD00BF8805002080B400AF094B72221A70094B20221A70084B06221A70084B47221A70074B03221A7000BFBD4680BCB4
:406BC000704700BF8A6500408965004029650040396500408865004080B582B000AF02F007FF0346FB71114A104B1B78DBB243F02003DBB213700E4A0D4B1B78DBB243F0E7
:406C00001003DBB213700B4A0A4B1B78DBB243F01003DBB2137002F0E9FDFB79184602F0EBFE00BF0837BD4680BD00BF9A650040996500409865004080B483B000AF064B6E
:406C40001B78DBB203F07F03FB71FB7918460C37BD4680BC704700BF6965004080B483B000AF0023FB710C4B1B78BB71BB7903F02003002B09D0094B1B78FB71BB7903F0B8
:406C80001E03002B01D00023FB71FB7918460C37BD4680BC704700BF696500404A65004080B483B000AF0346FB71044AFB79137000BF0C37BD4680BC704700BF886500406D
:406CC00080B400AF034B1B78DBB21846BD4680BC704700BF6865004080B483B000AF0346FB7100BF074B1B78DBB203F00403002BF8D1054AFB79137000BF0C37BD4680BCB2
:406D0000704700BF686500404865004080B485B000AF0346FB710B4B1B78DBB223F00203FB730849FB795B00DBB203F00203DAB2FB7B1343DBB20B7000BF1437BD4680BCCC
:406D4000704700BF2051004080B485B000AF0346FB710A4B1B78DBB223F00103FB730749FB7903F00103DAB2FB7B1343DBB20B7000BF1437BD4680BC704700BF00510040BA
:406D800080B582B000AF786000F03CF8786800F009F8052000F018F800F028F800BF0837BD4680BD80B485B000AF7860054B1B68FB60FB685C337A681A6000BF1437BD4604
:406DC00080BC704708ED00E080B483B000AF0346FB71054AFB795B01DBB2137000BF0C37BD4680BC704700BF07E400E080B400AF034B80221A6000BFBD4680BC704700BF8E
:406E000000E100E080B400AF034B80221A6000BFBD4680BC704700BF80E100E080B400AF034B80221A6000BFBD4680BC704700BF80E200E080B582B000AF786000F03CF87A
:406E4000786800F009F8052000F018F800F028F800BF0837BD4680BD80B485B000AF7860054B1B68FB60FB6858337A681A6000BF1437BD4680BC704708ED00E080B483B02A
:406E800000AF0346FB71054AFB795B01DBB2137000BF0C37BD4680BC704700BF06E400E080B400AF034B40221A6000BFBD4680BC704700BF00E100E080B400AF034B4022E9
:406EC0001A6000BFBD4680BC704700BF80E100E080B400AF034B40221A6000BFBD4680BC704700BF80E200E080B500AF064B1B78002B04D100F00AF8034B01221A7000F0FB
:406F00004FF800BF80BD00BF8A05002080B582B000AF204B1B78DBB223F03F03FB711D4AFB7943F00903DBB213701B4A1A4B1B78DBB243F00103DBB21370184A174B1B788C
:406F4000DBB243F00103DBB213704FF4FA7000F037F84FF4FA7000F051F8FA2000F05EF8002000F06BF802F043FD0346BB710B4A0A4B1B78DBB243F01003DBB21370BB79BD
:406F8000184602F039FD00F02BF800BF0837BD4680BD00BF77650040966500409765004080B400AF054A054B1B78DBB263F07F03DBB2137000BFBD4680BC70477765004050
:406FC00080B483B000AF0346FB80044AFB88138000BF0C37BD4680BC704700BF0C6A004080B500AF01E000F045F800F037F8034603F01003002BF6D100BF80BD80B483B031
:4070000000AF0346FB80044AFB88138000BF0C37BD4680BC704700BF8C6A004080B483B000AF0346FB80044AFB88138000BF0C37BD4680BC704700BF4C6A004080B483B03A
:4070400000AF0346FB71044AFB79137000BF0C37BD4680BC704700BF8765004080B400AF034B1B78DBB21846BD4680BC704700BF6765004080B400AF034B1B889BB2184695
:40708000BD4680BC704700BFAC6A004080B582B000AF786000F03CF8786800F009F8062000F018F800F028F800BF0837BD4680BD80B485B000AF7860054B1B68FB60FB68ED
:4070C00050337A681A6000BF1437BD4680BC704708ED00E080B483B000AF0346FB71054AFB795B01DBB2137000BF0C37BD4680BC704700BF04E400E080B400AF034B102200
:407100001A6000BFBD4680BC704700BF00E100E080B400AF034B10221A6000BFBD4680BC704700BF80E100E080B400AF034B10221A6000BFBD4680BC704700BF80E200E07B
:4071400080B582B000AF03460A46FB711346BB71094B1B78002B04D100F010F8064B01221A70BA79FB791146184600F0D9F800BF0837BD4680BD00BF8B05002080B582B061
:4071800000AF02F035FC0346FB71544A534B1B78DBB243F00103DBB21370514A504B1B78DBB243F00103DBB213704E4B01221A704D4B02221A704D4A4C4B1B78DBB203F03B
:4071C0007F03DBB21370002002F046FB484A484B1B78DBB223F00603DBB21370454A454B1B78DBB223F02003DBB21370404A404B1B78DBB243F00103DBB21370012002F025
:407200002BFB282002F028FB3B4A3B4B1B78DBB203F07F03DBB21370374A374B1B78DBB223F04003DBB21370314A314B1B78DBB243F00203DBB21370022002F00DFB2C4AA1
:407240002B4B1B78DBB243F00403DBB213702B4B00221A702A4B00221A70FB79184602F0CBFB0721172002F033FB2649172002F007FB0721182002F02BFB2349182002F03A
:40728000FFFA0721152002F023FB2049152002F0F7FA0721002002F01BFB1D49002002F0EFFA0721012002F013FB1A49012002F0E7FA0721022002F00BFB1749022002F0E0
:4072C000DFFA07210C2002F003FB14490C2002F0D7FA00BF0837BD4680BD00BFA5430040B54300409D60004009600040106000409443004012600040F851004084600040BC
:407300008560004021810000097A0000158100002D80000075800000C18000002D81000080B582B000AF03460A46FB711346BB712E4AFB7913702E4B00221A702D4B00220E
:407340001A702D4B00221A702C4B00221A702C4B00221A702B4B00221A702B4B00221A702A4B4FF400021A60284B4FF080721A60264B4FF400121A60244B01221A60234BC9
:4073800002221A60214B04221A60BB79002B02D0012B09D011E01E4A1D4B1B78DBB223F00103DBB2137011E0194A194B1B78DBB243F00103DBB2137008E0154A144B1B788D
:4073C000DBB243F00103DBB2137000BF114B03221A70114B80221A70012002F001FB0F4B04221A7000BF0837BD4680BD290600202C060020480600204B060020400600202A
:407400004A0600204D0600202806002000E100E00960004028600040086000401260004080B400AF0F4B00221A700F4B00221A700E4B00221A700E4B00221A700D4B00221C
:407440001A700D4B00221A700C4B00221A700C4B03221A700B4B80221A7000BFBD4680BC704700BF2C060020480600204B060020400600204A0600204D06002028060020B7
:40748000286000400860004080B400AF034B1B78DBB21846BD4680BC704700BF4B06002080B483B000AF0023FB71084B1B78DBB2002B05D0054B1B78FB71044B00221A7025
:4074C000FB7918460C37BD4680BC70474806002080B483B000AF0346FB71FA79064913465B0013449B000B4401331B78DBB218460C37BD4680BC704750060020B0B485B097
:4075000000AF03463960FB711346BB80FB79002B6DD0FB79082B6AD8B988FA79364813465B0013449B00034406331B889BB2C3F5007399420CD9FA792F4913465B001344CC
:407540009B000B4406331B889BB2C3F50073BB802A4CF979BB881B0A9BB2D8B2FA79264D13465B0013449B002B4403331B78DBB20343DAB20B0123441A70204AFB79B9882C
:40758000C9B21B01134401330A461A703B68002B13D00023FB810CE01948FB79FA8939680A4412781B01034408331A70FB890133FB81FA89BB889A42EED3FA790E491346E0
:4075C0005B0013449B000B44013300221A700B48F979FA79084C13465B0013449B00234405331B78DAB20B01034402331A7000BF1437BD46B0BC704750060020FC5F0040CC
:407600007060004090B482B000AF0346FB71FB79002B1CD0FB79082B19D8FA790E4913465B0013449B000B44013300221A700B48F979FA79084C13465B0013449B00234405
:4076400005331B78DAB20B01034402331A7000BF0837BD4690BC704750060020FC5F004080B582B000AF0023FB71314B1B79DBB2184600F067F80346BB712D4B1B78DBB290
:407680005BB2002B15DA2A4B5B78DBB2212B00D048E0284B07221A80BA791346DB009B1A254A1344234A536000F028FB0346FB7138E01F4B5B78DBB2202B02D0222B1AD054
:4076C00030E01C4B07221A80BA791346DB009B1A194A1344174A5360BB79BA7917498A5CD2B242F00102D1B2144AD15400F084FB0346FB7116E0BB790D4A9278D2B291B284
:407700000F4A22F81310BB79BA790C498A5CD2B242F00202D1B2094AD15400F00BFC0346FB7100BFFB7918460837BD4680BD00BF0060004034060020DC80FF1F1006002037
:407740002406002080B485B000AF0346FB710023FB73FF23BB7317E0FB7B104AD35C7B737A7B0F4913465B0013449B000B440A331B78DBB2FA799A4203D1FB7BBB730223A2
:40778000FB73FB7B0133FB73FB7B012BE4D9BB7B18461437BD4680BC704700BF180600205006002080B582B000AF0023BB71224B00221A70214B00221A70204B00225A70AF
:4077C0000023FB7110E0FB791D4AD35C7B717B79002B06D07B79082B03D87B791846FFF711FFFB790133FB71FB79012BEBD9154B1B78DBB2002B18D0114B1B78DBB2002B13
:4078000013D0114B1B78DBB2002B0ED00D4B1B78DBB2082B09D80A4B1B78DBB2082B04D8094B1B78DBB2082B01D90123BB71BB7918460837BD4680BD8C0500201006002007
:407840001C060020140600201806002080B485B000AF78600023FB8102E0FB890133FB81FB897A6813441B78002BF6D1FB8918461437BD4680BC704780B584B000AF786054
:407880000023BB81304B1B781A46304B9B5CFB727868FFF7DBFF0346FB81FA7A2C4913465B0013449B000B4408331B889BB2FA899A420AD9FA7A264913465B0013449B00D3
:4078C0000B4408331B889BB200E0FB893B81BB897A68D1183A89FB7A1846FFF70FFEFA893B89D31AFB81FB89002B0CD1FA7A184913465B0013449B000B4408331B889BB215
:407900003A899A4219D1BA893B891344BB8100BFFA7A0F4913465B0013449B000B4401331B78DBB2002BF3D0FB89002B05D1FB7A002200211846FFF7E1FDFB89002BACD1C7
:4079400000BF1037BD4680BD8C050020140600205006002080B500AF054B1B781A46054B9B5CDBB21846FFF7B3FD0346184680BD8C0500201406002080B485B000AF7860A2
:407980000B46FB701346BB707B68DB7803F00303FB737B689B785BB2002B1ADAFB7B032B0AD0BB7803F001031449FA78CA54BB7843F00103BB701BE0BB789B08DBB203F04D
:4079C00001030F49FA78CA54BB7843F00403BB700EE0FB7B032B0BD0BB785B08DBB203F001030849FA78CA54BB7843F00203BB70BB7818461437BD4680BC704714060020F9
:407A0000180600201C06002080B582B000AF374B1B78BB71BB7903F01003002B62D00123FB7197F90630002B12DABB7903F00F03012B02D00023FB711CE000F061F82C4BE9
:407A40001B78DBB25BB2002B14DA0023FB7111E0BB7903F04003002B02D000F095F809E0BB7903F02003002B02D000F0B3F801E00023FB71FB79002B34D01C4B1B78BB7158
:407A800097F90630002B2DDB1A4B1B78DAB21A4B1B78DBB21343BB71184ABB791370174B1B78DBB2BA799A421CD1114B1B78FB710E4B1B78DBB223F07F03BB71BB79002BB7
:407AC0000AD10A4B0A4A1278D2B21A70074B1B78DBB203F00F03FB71054B1B78DBB2FA799A42E2D100BF0837BD4680BD2860004049060020BE0600204C0600202960004081
:407B000080B582B000AF1D4B1B78FB711B4AFB7913701A4B1B78FB7197F90730002B03DA174AFB79137025E0022000F045FA154B1B78DBB203F06003202B08D0402B0BD04C
:407B4000002B0ED100F0F8FA0346FB710CE001F057FF0346FB7107E001F0F8FA0346FB7102E00023FB7100BFFB79002B02D1044B03221A7000BF0837BD4680BD2860004057
:407B8000490600200060004080B500AF104B1B78DBB2062B19D801A252F823F0CB7B0000CB7B0000B97B0000CB7B0000BF7B0000CB7B0000C57B000000F0F8F806E000F0B9
:407BC000A7F903E000F0D2F900E000BF00BF80BD2C06002080B500AF124B1B78DBB2062B1DD801A252F823F01F7C00001F7C0000057C00001F7C00000B7C00001F7C00005F
:407C0000117C000000F0D8F80AE000F027F907E0032000F0D1F9044B03221A7000E000BF00BF80BD2C0600204906002080B483B000AF0023FB71294B1B78DBB29AB2284BE7
:407C40001B889BB213449AB2254B1A8015E02549FB79254A52681278D2B2CA54224B5B680133214A5360FB790133FB711E4B1B889BB2013B9AB21C4B1A801B4B1B889BB26D
:407C8000002B02D0FB79072BE1D9144B1B78DBB2082B02D0FB79002B0FD0144B1B78DBB283F07F03DB43DAB2104B1A70104B0F221A70104B02221A7005E00D4B02221A7058
:407CC0000C4B02221A700C4AFB791370034AFB79137000BF0C37BD4680BC7047280600202A0600200060004034060020BE060020490600202C0600204C06002080B582B0E0
:407D000000AF164B1B889BB2002B02D100F02EF81EE0134B02221A70124B00221A7000F06BF9114BDB79DBB29BB21B029AB20E4B9B79DBB29BB21343FB80084B1B889BB27A
:407D4000FA889A4202D2054AFB881380FFF76EFF012318460837BD4680BD00BF340600202C060020BE0600200060004080B400AF094B02221A70094B80221A70084B0F2230
:407D80001A70084B00221A70074B00221A7001231846BD4680BC70472C060020BE06002049060020280600204C06002080B500AFFFF73CFF00BF80BD80B500AF0A4B1B7882
:407DC000DBB29AB2094B1B889BB213449AB2074B1A80074B00221A70012000F0EDF8054B03221A7000BF80BD280600202A0600202C0600204906002080B582B000AF124B16
:407E000004221A70114B80221A7000F0F5F8104BDB79DBB29BB21B029AB20D4B9B79DBB29BB21343FB800B4B1B889BB2FA889A4202D2084AFB881380074B0B221A70012317
:407E400018460837BD4680BD2C060020BE06002000600040340600204906002080B483B000AF0023BB71234B1B78DBB203F00F03DBB2023BFB71FB799AB21F4B1B889BB23E
:407E800013449AB21C4B1A8018E01C4B5B681C49BA798A5CD2B21A70184B5B680133174A5360BB790133BB71FB79013BFB71134B1B889BB2013B9AB2104B1A800F4B1B888A
:407EC0009BB2002B02D0FB79002BDED10D4AFB7913700D4B1B78DBB283F07F03DB43DAB2094B1A70094B0B221A7000BF0C37BD4680BC7047296000402A0600203406002031
:407F0000006000404C060020BE0600204906002080B500AF054B00221A70012000F04CF8034B03221A7000BF80BD00BF2C0600204906002080B400AF084B06221A70084BF3
:407F400006221A70074B80221A70074B00221A7001231846BD4680BC704700BF2C06002049060020BE0600204C06002080B500AF0D4B1B78DBB2002B0AD00C4A0A4B1B78E6
:407F8000DBB263F07F03DBB21370074B00221A70074B00221A70012000F00EF8054B03221A7000BF80BD00BF4A060020086000402C0600204906002080B483B000AF03464A
:407FC000FB710B4B9B68002B0CD0094B9B68FA791A70074B9B68074A128892B25A80044B00229A6000BF0C37BD4680BC704700BF340600202A06002080B400AF094B0022DE
:408000001A80094B9B68002B07D0074B9B6800221A70054B9B6800225A8000BFBD4680BC704700BF2A0600203406002080B400AF0D4B01221A700D4B9B7C0D4B1B7BDBB20D
:4080400003F00303012B08D0094BDB7BDBB283F07F03DB43DAB2064BDA73054B01225A7300BFBD4680BC70470B600040FC5F00405006002080B400AF0E4B02221A700E4B9B
:4080800093F822300D4B1B7EDBB203F00303012B08D00A4BDB7EDBB283F07F03DB43DAB2064BDA76054B01225A7600BFBD4680BC704700BF0B600040FC5F0040500600207A
:4080C00080B400AF104B04221A70104B93F832300F4B93F82430DBB203F00303012B0AD00B4B93F82730DBB283F07F03DB43DAB2074B83F82720064B012283F8252000BF1A
:40810000BD4680BC704700BF0B600040FC5F00405006002080B400AF00BFBD4680BC704780B500AFFFF77CF900BF80BD80B500AF01F076FB00BF80BD80B586B000AF00236C
:40814000FB75B04B1B78FB7100233B61AE4B00221A8097F90730002B80F2FD80A94B5B78DBB20A2B00F2168201A252F823F000BFAD820000958500009585000095850000F1
:4081800095850000958500009D81000095850000218300009585000037830000994BDB78DBB2012B0ED100F049FEB860BB685B68954A5360944B12221A80FFF79FFD0346BD
:4081C000FB75E9E18F4BDB78DBB2022B25D18D4B9B78DBB2184600F009FEB860BB68002B00F0DA81BB685B68874A5360864B5B6803331B78DBB29BB21B029AB2824B5B6850
:4082000002331B78DBB29BB213439AB27E4B1A80FFF774FD0346FB75BEE17A4BDB78DBB2032B3ED10023FB73784B3B6109E03B691B78BB71BB793A6913443B61FB7B013346
:40824000FB73704B9B78DBB2FA7B9A4204D23B691B78DBB2002BEAD16A4B9B78DBB2002B0BD0684B9B78DAB2694B1B7C9A4204D1684800F0ABF9674B3B613B691B78DBB265
:40828000002B00F089813B691B78DBB29AB25E4B1A805D4A3B695360FFF730FD0346FB757AE101F0ADFB0346FB7575E1FB7903F00303002B20D0022B00D030E0524B022213
:4082C0001A80504B1B79DBB203F07F02524913465B0013449B000B4402331B78DAB24F4B1A704E4B00225A70474B4C4A5A60FFF705FD0346FB7512E0434B02221A80484BC3
:408300001B78DAB2454B1A70444B00225A703E4B424A5A60FFF7F2FC0346FB7500BF42E1394B01221A80384B3E4A5A60FFF7E6FC0346FB7537E1344B01221A80314B1B7940
:40834000DBB21A46384B13442F4A5360FFF7D6FC0346FB7527E12B4B5B78DBB2013B0A2B00F21C8101A252F823F000BF798400009D850000078500009D8500009983000003
:408380009D8500009D8500009D850000AD8300009D850000358400001A4B9B78DAB2234B1A70FFF7C7FD0346FB75FCE0154B9B787B717B79002B06D07B79013BDBB2184692
:4083C00000F014FDB8607B79002B02D0BB68002B03D17B79002B40F0E380124B1B78DBB27A799A4208D00F4A7B791370104B01221A70012000F0F2F9FFF79CFD0346FB755F
:40840000CEE000BF006000403406002064AB00000CAB0000C406002050060020900500204D0600204B060020BC0600204A0600204806002000F052FE0346002B00F0B28080
:408440005B4B1B793B715A4B1B79DAB2594B1A703B79594AD35CDAB23B795849CB5CDBB29A4204D0564B01221A7000F091FBFFF761FD0346FB7595E0FB7903F00303012B73
:4084800020D0012B0CD3022B00D03BE0484B9B78DBB2002B31D100F07DFD0346FB752CE0434B9B78DBB2012B29D1464B1B78DBB223F00203DAB2434B1A70FFF73BFD0346E2
:4084C000FB751CE03A4B1B79DBB2012B19D8384B9B78DBB2DB43DBB2354A1279D2B211461046394A125CD2B21340DAB2364B5A54FFF720FD0346FB7503E000BF53E000BF61
:4085000051E000BF4FE0FB7903F00303012B20D0012B0CD3022B00D03BE0254B9B78DBB2002B31D100F0C2FC0346FB752CE0204B9B78DBB2012B29D1224B1B78DBB243F0CF
:408540000203DAB21F4B1A70FFF7F4FC0346FB751CE0174B1B79DBB2012B19D8144B9B78DBB2DB43DBB2124A1279D2B211461046154A125CD2B21340DAB2134B5A54FFF747
:40858000D9FC0346FB7503E000BF0CE000BF0AE000BF08E000BF06E000BF04E000BF02E000BF00E000BFFB7D18461837BD4680BD006000404006002030060020BC06002065
:4085C000480600204D060020C0060020B0B58AB000AF7860324B07F114041D460FCD0FC42B682370002387F826307B68002B52D07B6822221A707B68013303221A7007F132
:408600000C03184601F088F9022387F827303EE097F827307A68134497F8262007F128010A4412F81C2C1209D2B207F128010A4412F8142C1A7097F8273001337A68134458
:4086400000221A7097F8273002337A68134497F8262007F128010A4412F81C2C02F00F0207F128010A4412F8142C1A7097F8273003337A68134400221A7097F82630013304
:4086800087F8263097F82730043387F8273097F82730212BBCD900BF2837BD46B0BD00BFF8AA000090B482B000AF0123FB7180E0464AFB791B0113440C221A70FA794449F8
:4086C00013465B0013449B000B4405331B78DBB2002B1CD0FA793E4913465B0013449B000B4404331B78DBB25BB2002B07DA394AFB791B01134402330C221A700EE0354AF3
:40870000FB791B011344023308221A7006E0314AFB791B011344023380221A702B48F979FA792B4C13465B0013449B00234406331B889BB2DAB20B01034406331A702348AE
:40874000F979FA79224C13465B0013449B00234406331B889BB21B0A9BB2DAB20B01034407331A701948F979FA79194C13465B0013449B00234406331B889BB2DAB20B01E2
:40878000034404331A701148F979FA79104C13465B0013449B00234406331B889BB21B0A9BB2DAB20B01034405331A70FB790133FB71FB79082B7FF67BAF074BFF221A7077
:4087C00000BF0837BD4690BC704700BF7060004050060020FC5F00400A60004080B58AB000AF0346FB7100237B84002387F8273050E097F82720B34913465B0013449B0055
:408800000B4400221A7097F82720AE4913465B0013449B000B44023300221A7097F82720A84913465B0013449B000B44033300221A7097F82720A34913465B0013449B0094
:408840000B44083300221A8097F827209D4913465B0013449B000B440A3300221A7097F82720984913465B0013449B000B44013300221A7097F82720924913465B001344D0
:408880009B000B44053300221A7097F82730013387F8273097F82730082BAAD9FB79002B16D0002387F825300EE097F82530864A0021D15497F82530844A0021D15497F873
:4088C0002530013387F8253097F82530012BECD97F4B1B78DBB2002B00F051810023FB767B4B1B78DBB2013BDBB2184600F07EFA78617B695B683B613B6907331B7803F0E6
:408900004003002B08D0734B1B78DBB243F00103DAB2704B1A7007E06E4B1B78DBB223F00103DAB26B4B1A707B6908337B617B691B7887F82730012387F82530B6E07B69AE
:408940005B68FB61002387F82630A3E097F82520FB699B7803F07F039A4240F0938097F82520584913465B0013449B000B4408331B889AB2FB699B889A420CD297F82520D5
:40898000FB6998884F4913465B0013449B000B44083302461A80FB691B781A464A4B9B5CDAB2FB695B789A426CD197F82520FB699878444913465B0013449B000B440433C9
:4089C00002461A7097F82520FB69D8783D4913465B0013449B000B4402461A70FB69DB7803F00303FB73FB699B785BB2002B1CDA97F82520FB7B012B01D1072000E00D2091
:408A0000304913465B0013449B000B44053302461A7097F825202B4913465B0013449B000B44013301221A701BE097F82520FB7B012B01D1052000E00920224913465B0010
:408A400013449B000B44053302461A7097F825201C4913465B0013449B000B44013300221A70FB699B790A2B03D0FB699B79022B08D1FA7E97F825301946F869FEF77CFF13
:408A80000346FB76FB690833FB6197F82630013387F8263097F8262097F827309A42FFF455AF97F82530013387F8253097F82530082B7FF644AF7B695B68FB61002387F875
:408AC000253020E050060020BC060020300600204B0600204D060020FB699B7803F07F02FB691878284913465B0013449B000B440A3302461A70FB690833FB6197F825305C
:408B0000013387F8253097F8252097F827309A42E2D300F0A5F902461C4B1A6000237B84012387F8273024E097F82720164913465B0013449B000B4406337A8C1A8097F879
:408B40002720114913465B0013449B000B4408331B889AB27B8C13447B847B8C03F001039AB27B8C13447B8497F82730013387F8273097F82730082BD6D9FFF793FD00BF34
:408B80002837BD4680BD00BF500600204406002090B585B000AF8F4B1B78DBB2002B00F015818C4B1B78DBB2013BDBB2184600F01DF978607B6808337B607B681B78FB70CD
:408BC0007B685B68BB60844B1B78BB700023FB73F7E0BB681B78BA789A4240F0EC80BB787E4AD35CDAB2BB685B789A4240F0E380BB689B7803F07F037B70BB68DB7803F045
:408C000003033B707A78764913465B0013449B000B44033300221A707A78BB689878704913465B0013449B000B44043302461A707A78BB68D8786A4913465B0013449B0061
:408C40000B4402461A707A78BB689888644913465B0013449B000B44083302461A80BB689B785BB2002B1ADA7A783B78012B01D1072000E00D205A4913465B0013449B005D
:408C80000B44053302461A707A78554913465B0013449B000B44013301221A7019E07A783B78012B01D1052000E009204C4913465B0013449B000B44053302461A707A78A5
:408CC000474913465B0013449B000B44013300221A70444A7B781B011344023301221A70404879787A783E4C13465B0013449B00234408331B889BB21B0A9BB2DAB20B0102
:408D000003441A70374879787A78354C13465B0013449B00234408331B889BB2DAB20B01034401331A70304879787A782C4C13465B0013449B00234406331B889BB2DAB215
:408D40000B01034406331A70274879787A78244C13465B0013449B00234406331B889BB21B0A9BB2DAB20B01034407331A701E4879787A781A4C13465B0013449B00234414
:408D800006331B889BB2DAB20B01034404331A70154879787A78124C13465B0013449B00234406331B889BB21B0A9BB2DAB20B01034405331A70BB680833BB60FB7B0133E0
:408DC000FB73FA7BFB789A42FFF403AF00BF1437BD4690BD4B06002040060020BC06002050060020FC5F00407060004080B485B000AF0346FB710F4B1B78DBB20E4ADB00EE
:408E000013445B68FB60FB681033FB60FB681B78FA799A4202D30023FB6005E0FB79DB00FA6813445B68FB60FB6818461437BD4680BC70472906002064AC000080B400AFD5
:408E4000054B1B78DBB2054ADB0013445B681846BD4680BC704700BF2906002064AC000080B584B000AF104B1B78DBB2013BDBB21846FFF7BBFFB860BB68002B0DD0BB68FC
:408E80005B681B79FB71FB790233DB00BA681344BB60BB685B68FB6001E00023FB60FB6818461037BD4680BD4B06002080B582B000AF0023FB71344B1B79DBB203F07F03C4
:408EC000BB71BB79002B5AD0BB79082B57D8BA79B9792E480B465B000B449B00034402331B78DBB243F00103D8B2284913465B0013449B000B44023302461A70BA7923494D
:408F000013465B0013449B000B44033300221A70BA79B9791D480B465B000B449B00034401331B78DBB243F00203D8B2174913465B0013449B000B44013302461A70BA790F
:408F4000124913465B0013449B000B4404331B78DBB25BB2002B07DA0D4ABB791B01134402338D221A7006E0094ABB791B011344023389221A70FEF7DDFF0346FB71FB7981
:408F800018460837BD4680BD0060004050060020FC5F004080B582B000AF0023FB714C4B1B79DBB203F07F03BB71BB79002B00F08A80BB79082B00F28680BA79B97945487B
:408FC0000B465B000B449B00034402331B78DBB223F00103D8B23F4913465B0013449B000B44023302461A70BA793A4913465B0013449B000B44033300221A70364ABB79D9
:409000001B0113447F221A70BA79B97931480B465B000B449B00034401331B78DBB223F00203D8B22B4913465B0013449B000B44013302461A70BA79264913465B001344C5
:409040009B000B4404331B78DBB25BB2002B1BDABA79204913465B0013449B000B4401331B78DBB2012B07D11B4ABB791B01134402330C221A7022E0174ABB791B01134496
:4090800002330D221A701AE0BA79124913465B0013449B000B4401331B78DBB2012B07D10D4ABB791B011344023308221A7006E0094ABB791B011344023309221A70FEF747
:4090C00039FF0346FB71FB7918460837BD4680BD0060004050060020FC5F004080B584B000AF0023FB73154B1B79BB73144B1B78DBB2013BDBB21846FFF778FEB860BB6869
:409100005B681B79FB71BA7BFB799A4202D9BB7B022B0ED8BB7BBA7B0A498A5CD1B20A4AD154BB7B054A9278D1B2064AD1540123FB73FB7B18461037BD4680BD006000400F
:409140004B060020BC0600203006002080B483B000AF0023FB71094B1B78DBB25BB2002B06DA064B5B78DBB2012B00D000E000BFFB7918460C37BD4680BC7047006000401E
:4091800080B485B000AF0346FB710B4B1B78DBB223F00203FB730849FB795B00DBB203F00203DAB2FB7B1343DBB20B7000BF1437BD4680BC704700BF0051004080B485B028
:4091C00000AF0346FB710B4B1B78DBB223F00403FB730849FB799B00DBB203F00403DAB2FB7B1343DBB20B7000BF1437BD4680BC704700BF0051004080B500AF064B1B78AE
:40920000002B04D100F00AF8034B01221A7000F04FF800BF80BD00BF9205002080B582B000AF204B1B78DBB223F03F03FB711D4AFB7943F00903DBB213701B4A1A4B1B78AF
:40924000DBB243F00103DBB21370184A174B1B78DBB243F00103DBB2137040F2F51000F037F840F2F51000F051F8FA2000F05EF8002000F06BF800F0BBFB0346BB710B4AE6
:409280000A4B1B78DBB243F01003DBB21370BB79184600F0B1FB00F02BF800BF0837BD4680BD00BF79640040986400409964004080B400AF054A054B1B78DBB263F07F0398
:4092C000DBB2137000BFBD4680BC70477964004080B483B000AF0346FB80044AFB88138000BF0C37BD4680BC704700BF1068004080B500AF01E000F045F800F037F8034685
:4093000003F01003002BF6D100BF80BD80B483B000AF0346FB80044AFB88138000BF0C37BD4680BC704700BF9068004080B483B000AF0346FB80044AFB88138000BF0C37CC
:40934000BD4680BC704700BF5068004080B483B000AF0346FB71044AFB79137000BF0C37BD4680BC704700BF8964004080B400AF034B1B78DBB21846BD4680BC704700BFE8
:409380006964004080B400AF034B1B889BB21846BD4680BC704700BFB068004080B582B000AF786000F03CF8786800F009F8062000F018F800F028F800BF0837BD4680BDBD
:4093C00080B485B000AF7860054B1B68FB60FB6854337A681A6000BF1437BD4680BC704708ED00E080B483B000AF0346FB71054AFB795B01DBB2137000BF0C37BD4680BCF9
:40940000704700BF05E400E080B400AF034B20221A6000BFBD4680BC704700BF00E100E080B400AF034B20221A6000BFBD4680BC704700BF80E100E080B400AF034B2022B6
:409440001A6000BFBD4680BC704700BF80E200E080B500AF224A224B1B78DBB203F00103DBB213701F4A1F4B1B78DBB223F00303DBB213701C4A1C4B1B78DBB223F0300389
:40948000DBB21370184A184B1B78DBB243F03003DBB21370144A144B1B78DBB223F00F03DBB21370104A104B1B78DBB243F00F03DBB213700D4A0D4B1B78DBB243F00103FF
:4094C000DBB2137040F65F1000F058F840F65F1000F066F8002000F041F800BF80BD00BF004F0040024F00400B4F0040014F004080B400AF0D4A0D4B1B78DBB243F001034D
:40950000DBB213700A4A0A4B1B78DBB243F00103DBB21370074A074B1B78DBB243F00103DBB2137000BFBD4680BC7047A3430040B3430040004F004080B500AF064B1B7899
:40954000002B04D1FFF784FF034B01221A70FFF7CFFF00BF80BD00BF9305002080B483B000AF0346FB71044AFB79137000BF0C37BD4680BC704700BF034F004080B485B07E
:4095800000AF0346FB80FB88FB81044AFB89138000BF1437BD4680BC704700BF044F004080B483B000AF0346FB80044AFB88138000BF0C37BD4680BC704700BF064F0040F8
:4095C00080B582B000AF786000F03CF8786800F009F8002000F018F800F028F800BF0837BD4680BD80B485B000AF7860054B1B68FB60FB684C337A681A6000BF1437BD46B1
:4096000080BC704708ED00E080B483B000AF0346FB71054AFB795B01DBB2137000BF0C37BD4680BC704700BF03E400E080B400AF034B08221A6000BFBD4680BC704700BFA1
:4096400000E100E080B400AF034B08221A6000BFBD4680BC704700BF80E100E080B500AF224A224B1B78DBB203F00103DBB213701F4A1F4B1B78DBB223F00303DBB213709F
:409680001C4A1C4B1B78DBB223F03003DBB21370184A184B1B78DBB243F03003DBB21370144A144B1B78DBB223F00F03DBB21370104A104B1B78DBB243F00F03DBB21370D0
:4096C0000D4A0D4B1B78DBB243F00103DBB213704FF6FF7000F058F84FF6FF7000F066F8002000F041F800BF80BD00BF0C4F00400E4F0040174F00400D4F004080B400AFFD
:409700000D4A0D4B1B78DBB243F00203DBB213700A4A0A4B1B78DBB243F00203DBB21370074A074B1B78DBB243F00103DBB2137000BFBD4680BC7047A3430040B3430040E6
:409740000C4F004080B500AF064B1B78002B04D1FFF784FF034B01221A70FFF7CFFF00BF80BD00BF9405002080B483B000AF0346FB71044AFB79137000BF0C37BD4680BC89
:40978000704700BF0F4F004080B485B000AF0346FB80FB88FB81044AFB89138000BF1437BD4680BC704700BF104F004080B483B000AF0346FB80044AFB88138000BF0C37B7
:4097C000BD4680BC704700BF124F004080B400AF044B1B88044B1B889BB21846BD4680BC704700BF124F0040144F004080B400AF094A094B1B78DBB243F00203DBB21370B6
:40980000064A064B1B78DBB243F00203DBB2137000BFBD4680BC7047A2430040B243004080B400AF054B1B78DBB203F040039B09DBB21846BD4680BC704700BF8F4500402F
:4098400080B483B000AF0346FB7101BE00BF0C37BD4680BC704700BF80B582B000AF0346FB80FB88054A127802FB03F3184600F0B7F800BF0837BD4680BD00BF0081FF1FE5
:4098800080B584B000AF03463960FB710F4B1B68FB60FB791F2B02D90020FFF7D1FFFB7903F01F0310339B00FA6813441B68BB60FB7903F01F0310339B00FA6813443A680B
:4098C0001A60BB6818461037BD4680BD08ED00E080B582B000AF03460A46FB711346BB71BB79072B02D90020FFF7AAFFFB791F2B02D90020FFF7A4FFFB7903F01F0303F1A2
:40990000604303F56443BA795201D2B21A7000BF0837BD4680BD00BF80B483B000AF7860264B1B78DBB21A467B681A60244B1B78DBB21B027A6812681A437B681A60214BEA
:409940001B78DBB21B047A6812681A437B681A601D4B1B78DBB21B067A6812681A437B681A607B680433194A1278D2B21A60184B1B78DBB21A027B6804337968043109688E
:409980000A431A60134B1B78DBB21A047B6804337968043109680A431A600F4B1B78DBB21A067B6804337968043109680A431A6000BF0C37BD4680BC704700BF03010049D6
:4099C00004010049EC4600400201004901010049000100490501004906010049000000000230800803D000BF01380046FCD17047EFF3108072B6704780F31088704700BF06
:409A000080B582B000AF1A4B1B78DBB203F00303012B02D0022B04D012E0154B1B79BB7111E0134B1B79DBB203F07F02114913465B0013449B000B440A331B78BB7102E070
:409A40000023BB7100BF0C4B1A68BB7913441B78022B04D1FDF704FE0346FB7102E00023FB7100BFFB7918460837BD4680BD00BF00600040500600204406002081F00041C2
:409A800002E000BF83F0004330B54FEA41044FEA430594EA050F08BF90EA020F1FBF54EA000C55EA020C7FEA645C7FEA655C00F0E2804FEA5454D4EB5555B8BF6D420CDD14
:409AC0002C4480EA020281EA030382EA000083EA010180EA020281EA0303362D88BF30BD11F0004F4FEA01314FF4801C4CEA113102D0404261EB410113F0004F4FEA033311
:409B00004CEA133302D0524263EB430394EA050F00F0A780A4F10104D5F1200E0DDB02FA0EFC22FA05F2801841F1000103FA0EF2801843FA05F359410EE0A5F120050EF1A0
:409B4000200E012A03FA0EFC28BF4CF0020C43FA05F3C01851EBE37101F0004507D54FF0000EDCF1000C7EEB00006EEB0101B1F5801F1BD3B1F5001F0CD349085FEA30001A
:409B80004FEA3C0C04F101044FEA445212F5800F80F09A80BCF1004F08BF5FEA500C50F1000041EB045141EA050130BD5FEA4C0C404141EB010111F4801FA4F10104E9D1AB
:409BC00091F0000F04BF01460020B1FA81F308BF2033A3F10B03B3F120020CDA0C3208DD02F1140CC2F10C0201FA0CF021FA02F10CE002F11402D8BFC2F1200C01FA02F1CF
:409C000020FA0CFCDCBF41EA0C019040E41AA2BF01EB0451294330BD6FEA04041F3C1CDA0C340EDC04F11404C4F1200220FA04F001FA02F340EA030021FA04F345EA030136
:409C400030BDC4F10C04C4F1200220FA02F001FA04F340EA0300294630BD21FA04F0294630BD94F0000F83F4801306BF81F480110134013D4EE77FEA645C18BF7FEA655C2F
:409C800029D094EA050F08BF90EA020F05D054EA000C04BF1946104630BD91EA030F1EBF0021002030BD5FEA545C05D14000494128BF41F0004130BD14F580043CBF01F54E
:409CC000801130BD01F0004545F0FE4141F470014FF0000030BD7FEA645C1ABF194610467FEA655C1CBF0B46024650EA013406BF52EA033591EA030F41F4002130BD00BFDE
:409D000090F0000F04BF0021704730B54FF4806404F132044FF000054FF0000150E700BF90F0000F04BF0021704730B54FF4806404F1320410F0004548BF40424FF00001D9
:409D40003EE700BF42004FEAE2014FEA31014FEA02701FBF12F07F4393F07F4F81F06051704792F0000F14BF93F07F4F704730B54FF4607401F0004521F0004120E700BF09
:409D800050EA010208BF704730B54FF000050AE050EA010208BF704730B511F0004502D5404261EB41014FF4806404F132045FEA915C3FF4DCAE4FF003025FEADC0C18BF77
:409DC00003325FEADC0C18BF033202EBDC02C2F1200300FA03FC20FA02F001FA03FE40EA0E0021FA02F11444C1E600BF70B54FF0FF0C4CF4E06C1CEA11541DBF1CEA13559B
:409E000094EA0C0F95EA0C0F00F0DEF82C4481EA030621EA4C5123EA4C5350EA013518BF52EA033541F4801143F4801338D0A0FB02CE4FF00005E1FB02E506F00042E0FB19
:409E400003E54FF00006E1FB03569CF0000F18BF4EF0010EA4F1FF04B6F5007F64F5407404D25FEA4E0E6D4146EB060642EAC62141EA55514FEAC52040EA5E504FEACE2E7D
:409E8000B4F1FD0C88BFBCF5E06F1ED8BEF1004F08BF5FEA500E50F1000041EB045170BD06F0004646EA010140EA020081EA0301B4EB5C04C2BFD4EB0C0541EA045170BD56
:409EC00041F480114FF0000E013C00F3AB8014F1360FDEBF002001F0004170BDC4F10004203C35DA0C341BDC04F11404C4F1200500FA05F320FA04F001FA05F240EA02002E
:409F000001F0004221F0004110EBD37021FA04F642EB06015EEA430E08BF20EAD37070BDC4F10C04C4F1200500FA04F320FA05F001FA04F240EA020001F0004110EBD3700F
:409F400041F100015EEA430E08BF20EAD37070BDC4F1200500FA05F24EEA020E20FA04F301FA05F243EA020321FA04F001F0004121FA04F220EA020000EBD3705EEA430E67
:409F800008BF20EAD37070BD94F0000F0FD101F00046400041EB010111F4801F08BF013CF7D041EA060195F0000F18BF704703F00046520043EB030313F4801F08BF013D1B
:409FC000F7D043EA0603704794EA0C0F0CEA135518BF95EA0C0F0CD050EA410618BF52EA4306D1D181EA030101F000414FF0000070BD50EA410606BF1046194652EA43065D
:40A0000019D094EA0C0F02D150EA013613D195EA0C0F05D152EA03361CBF104619460AD181EA030101F0004141F0FE4141F470014FF0000070BD41F0FE4141F4780170BDB8
:40A0400070B54FF0FF0C4CF4E06C1CEA11541DBF1CEA135594EA0C0F95EA0C0F00F0A7F8A4EB050481EA030E52EA03354FEA013100F088804FEA03334FF0805545EA1313AB
:40A0800043EA12634FEA022245EA111545EA10654FEA00260EF000419D4208BF964244F1FD0404F5407402D25B084FEA3202B61A65EB03055B084FEA32024FF480104FF4F7
:40A0C000002CB6EB020E75EB030E22BFB61A754640EA0C005B084FEA3202B6EB020E75EB030E22BFB61A754640EA5C005B084FEA3202B6EB020E75EB030E22BFB61A75462E
:40A1000040EA9C005B084FEA3202B6EB020E75EB030E22BFB61A754640EADC0055EA060E18D04FEA051545EA16754FEA06164FEAC30343EA52734FEAC2025FEA1C1CC0D158
:40A1400011F4801F0BD141EA00014FF000004FF0004CB6E711F4801F04BF01430020B4F1FD0C88BFBCF5E06F3FF6AFAEB5EB030C04BFB6EB020C5FEA500C50F1000041EB47
:40A18000045170BD0EF0004E4EEA113114EB5C04C2BFD4EB0C0541EA045170BD41F480114FF0000E013C90E645EA060E8DE60CEA135594EA0C0F08BF95EA0C0F3FF43BAF09
:40A1C00094EA0C0F0AD150EA01347FF434AF95EA0C0F7FF425AF104619462CE795EA0C0F06D152EA03353FF4FDAE1046194622E750EA410618BF52EA43067FF4C5AE50EAFF
:40A2000041047FF40DAF52EA43057FF4EBAE12E74FF0FF3C06E000BF4FF0010C02E000BF4FF0010C4DF804CD4FEA410C7FEA6C5C4FEA430C18BF7FEA6C5C1BD001B050EA96
:40A24000410C0CBF52EA430C91EA030F02BF90EA020F0020704710F1000F91EA030F58BF994208BF90422CBFD8176FEAE37040F0010070474FEA410C7FEA6C5C02D150EA31
:40A28000013C07D14FEA430C7FEA6C5CD6D152EA033CD3D05DF8040B704700BF8446104662468C461946634600E000BF01B5FFF7B7FF002848BF10F1000F01BD4DF808ED57
:40A2C000FFF7F4FF0CBF012000205DF808FB00BF4DF808EDFFF7EAFF34BF012000205DF808FB00BF4DF808EDFFF7E0FF94BF012000205DF808FB00BF4DF808EDFFF7CEFF37
:40A3000094BF012000205DF808FB00BF4DF808EDFFF7C4FF34BF012000205DF808FB00BF4A0011D212F5001211D20DD56FF47873B3EB62520ED44FEAC12343F0004343EAE7
:40A34000505323FA02F070474FF00000704750EA013002D14FF0FF3070474FF00000704753B94AB9002908BF00281CBF4FF0FF314FF0FF3000F0BEB9ADF1080C6DE904CE05
:40A3800000F042F8DDF804E0DDE9022304B07047F8B50022002307460E46FFF799FF28B938463146BDE8F84000F00AB8384606F1004100F005F8404261EB4101F8BD00BFB7
:40A3C000D0B500220E4B06460F46FFF70FFDFFF7A7FF0446FFF794FC00220A4BFFF706FD02460B4630463946FFF74CFBFFF798FF2346002242EA000210461946D0BD00BFCC
:40A400000000F03D0000F0412DE9F04F8C460C460546099E002B4FD18A4217466BD9B2FA82FEBEF1000F0BD0CEF1200520FA05F501FA0EF345EA030C02FA0EF700FA0EF5A6
:40A44000390CBCFBF1F0BAB201FB10C300FB02F84FEA154C4CEA0344A04509D9E41900F1FF3380F02881A04540F2258102383C44C8EB0404B4FBF1F301FB134C03FB02F2A6
:40A48000ACB244EA0C418A4209D9C91903F1FF3480F00F818A4240F20C81023B39448A1A43EA00400021002E63D022FA0EF2002386E80C00BDE8F08F8B4207D9002E56D056
:40A4C000002186E811000846BDE8F08FB3FA83F1002940F09380A34202D3824200F2FE80851A64EB03039C460120002E41D086E82010BDE8F08F12B90127B7FBF2F7B7FA98
:40A5000087FEBEF1000F36D1E41B4FEA17481FFA87F90121B4FBF8F308FB134409FB03F24FEA154C4CEA0444A24207D9E41903F1FF3002D2A24200F2D3800346A41AB4FBE3
:40A54000F8F008FB104809FB00F9ACB244EA0842914507D9D21900F1FF3402D2914500F2BA802046C9EB020240EA03409BE731463046BDE8F08F07FA0EF7CEF1200C24FAFD
:40A580000CF34FEA1748B3FBF8FA1FFA87F908FB1A3520FA0CFC04FA0EF40AFB09FB4CEA040C4FEA1C4242EA05439B4500FA0EF50AD9DB190AF1FF3280F08B809B4540F290
:40A5C0008880AAF1020A3B44CBEB0303B3FBF8F008FB103300FB09F41FFA8CFC4CEA03439C4207D9DB1900F1FF326ED29C426CD902383B441C1B40EA0A418BE7C1F1200E92
:40A600008B4022FA0EFC4CEA030C24FA0EF74FEA1C49B7FBF9FA1FFA8CF309FB1A7720FA0EF88C400AFB03F548EA04044FEA144848EA0747BD4202FA01F200FA01FB09D953
:40A6400017EB0C070AF1FF3041D2BD423FD9AAF1020A67447F1BB7FBF9F509FB157705FB03F3A4B244EA0747BB4208D917EB0C0705F1FF3027D2BB4225D9023D674445EA68
:40A680000A40A0FB0289FF1A4F4545464C4614D329D066B3BBEB050367EB040707FA0EFECB40CF404EEA030386E888000021BDE8F08F2346F3E61846DAE6B8EB020569EB5E
:40A6C0000C040138E5E70546D9E7104692E78246C0E7924678E702383A4443E7084604E7023B3C442AE7C345E7D33C46D1E73146BDE8F08F704700BF014B1868704700BF8D
:40A700006881FF1F0E4B70B51E460E4C0025E41AA410A54204D056F8253098470135F8E700F0A6FA084B094C1E46E41AA4100025A54204D056F8253098470135F8E770BDBB
:40A740007CAC00007CAC00007CAC000084AC000010B5431E0A44914204D011F8014B03F8014FF8E710BD03460244934202D003F8011BFAE770470000000000008CFCFF7FDF
:40A780000100000049444C4500000000506F6C6C5F546573745F51756575650051436F6E734E42005150726F644E4200515065656B5F546573745F5175657565000000005D
:40A7C0005065656B4C0000005065656B4D0000005065656B483100005065656B48320000506F6C53454D3100506F6C53454D3200436F756E74696E675F53656D5F310000DB
:40A80000426C6B53454D3100426C6B53454D3200436F756E74696E675F53656D5F32000051436F6E734231005150726F6442320051436F6E734233005150726F64423400F7
:40A840005150726F6442350051436F6E73423600426C6F636B5F54696D655F51756575650000000042546573743100004254657374320000434F4D5478000000434F4D52DF
:40A8800078000000436F756E74696E675F53656D5F310000436F756E74696E675F53656D5F320000434E543100000000434E5432000000000300000043524541544F520029
:40A8C0005355494349443100535549434944320053757370656E6465645F546573745F517565756500000000434E545F494E43004C494D5F494E4300435F4354524C000055
:40A90000535553505F545800535553505F5258004C454478000000004D617468310000004D617468320000004D617468330000004D6174683400000047656E5F5175657515
:40A94000655F54657374000047656E510000000047656E5F51756575655F4D75746578004D754C6F770000004D754D65640000004D75486967680000496E744D6174680055
:40A98000483151527800000048325152780000004C31515278000000483151547800000048325154780000004C325152780000004E6F726D616C6C7946756C6C000000002F
:40A9C0004E6F726D616C6C79456D707479000000436865636B00000030313233343536373839414243444500506173733A20256C75204A6974746572286E73293A20256C1A
:40AA0000750D0A004661696C2061743A202575204572726F723A203078253034580D0A00286E756C6C290000547275650000000046616C73650000003031323334353637CE
:40AA400038396162636465660000000006000006000100001000030600060210044545454505050505353000506000000020283850500000003030305050000008202028D1
:40AA800020202000086060606060600000707878787078000708000007000008080000080008000008000700640000008813000055534253657269616C000000004F004011
:40AAC0001800305100404000000001400010001401400006801A0140800100400140000A004C01400002005001402000001A0140F8040048800000003031323334353637AF
:40AB00003839414243444546000000001201000202000008B40432F201000102800100000902430002010180320904000001020201030524001001042402020524060001DF
:40AB400005240100010705810308000A09040100020A000004070582024000000705030240000000040309042C0343007900700072006500730073002000530065006D0058
:40AB8000690063006F006E0064007500630074006F007200100355005300420055004100520054003803430044004300200043006F006D006D0075006E0069006300610061
:40ABC000740069006F006E00200049006E007400650072006600610063006500260343004400430020004400610074006100200049006E0074006500720066006100630011
:40AC0000650000000203000000008103080002000100820240000A000100030240000A00020A00000100000020AB00000300000008AC00000000000000000000000000006E
:40AC4000000000000000000020AC0000010000000CAB000000000000000000000100000024AC0000010000004CAC000043000000F8B500BFF8BC08BC9E4670474D00000077
:40AC8000E56A0000F8B500BFF8BC08BC9E46704729000000A8AC0000C880FF1FA8000000788500000000000000000000F87F0000AAAAAAAAFF0F00000100000000C201004D
:40ACC00000000800C201000000080000A12000000000020000000000006CDC0280BB0000300000000000C05D000000000000000000000000000000000000000000000000EC
:40AD000000000000000000006CAC000000000000000000000000000000000000000000000000000000000000000000000000000000000000000000000000000000000000FB
:40AD400000000000000000000881FF1F000000000000000000000000000000000000000000000000000000000000000000000000000000000000000000000000000000002C
:40AD80000000000000000000000000000000000000000000000000000000000000000000000000000000000000000000000000000000000000000000000000000000000093
:40ADC0000000000000000000000000000000000000000000000000000000000000000000000000000000000000000000000000000000000000000000000000000000000053
:40AE00000000000000000000000000000000000000000000000000000000000000000000000000000000000000000000000000000000000000000000000000000000000012
:40AE400000000000000000000000000000000000000000000000000000000000000000000000000000000000000000000000000000000000000000000000000000000000D2
:020000040003F7
:0200000480007A
:4000000001450040044F00400452004001640040046500400103014001070140580801402C090140020D0140040E0140010F0140011501403D160140241701405118014019
:40004000451901401D1A0140461B0140064001400C4101400C42014007430140044701400A48014002490140054C0140074D014007500140025101407E0201800A4B0D80B7
:40008000164B1404608061807C40890D870D880F89388A72EA03E202010804400810090314091610170118141B041D021E03242C2503261128302A0C2B042C1C2E2231046B
:4000C000326033033508361F380839083F144060410249FF4AFF4BFF4DA04F045018580459045A045C015F01604062C06440654066C068C06AC06CC06EC08A029204980100
:400100009B01A601AA02B001B202B404B501BE04C020C106C5D1C702C813C9FFCAFFCBFFCDAFCE0FCF04D018D280D405D804D904DA04DB04DF01E040E2C0E440E540E6C0B9
:40014000E8C0EAC0ECC0EEC001200420050809220E210F08102012041628174019241A4C1E212120240426062C082E082F1030203528368037403E31420446044828490182
:400180004E045008520459055A4071028602C062C2EAC4E6CA60CC74CEA0D024D224D60BAB80AF80B902BF01D904DF012780AF024060410249FF4AFF4BFF4DA04F045018E1
:4001C0005A045F01604062C06440654066C068C06AC06CC06EC086028702920198049B01A604A702AA02B002B401B501B604B702BE01C020C106C5D1C702C813C9FFCAFFC8
:40020000CBFFCDAFCE0FCF04D018D280D405D804D904DA04DB04DF01E040E2C0E440E540E6C0E8C0EAC0ECC0EEC00004092210201204184419801B10212023022B1030207C
:400240003A0440044604482849014F20500852045808598171028048C004C20AC406CA02CC04CE02D024D224D60BE208E640EA02EE0A0615070108030A1C0B100C2A0E141A
:400280001628170718031A041B181D181F0725032620270C280329032A342B1C2D2031013238340F3520371E3A283B803F1140264103450C47EB483149FF4AFF4BFF4EF07C
:4002C0004F44500C54015604580459045A045B045C115D115F0166C06A406B02860192019E02AA02B001B402BE11C006C640C9FFCA07CBFFCC40CD20CEF0CF05D008D41858
:40030000D604D804DA04DB04DD11DF01E040E1A8E240E320000805180701082009820B040E200F0412041510163018041B011D381E101F102440268027092C022D102E1030
:400340002F10350836903E203F044528480249084A054E044F04501052105402570459085A0A5C605E025F08600461016302678087408D019420961097209D08A214A680EA
:40038000A704B404C0E4C269C462CA70CC70CE60D060D224D6F1D88DE640EA02EE0A8102832984028513860189138C018E06911099019B0AA004A201A304A407A807B10C6F
:4003C000B303B510B607B720BF01D608D804D904DB04DC11DD90DF010024024205400720081009080A4110A8118015181640180419A51A401B401D401E011F40200821A017
:40040000220524402540272429242B402F403090310133043410372238283B813E143F0140404128430449204A03510252045A085C806640670169186A146B0270BC8104EE
:400440008201881089808C8096029E04A404A582C0AFC20FC47FCA87CCAFCEEFD007D20CD612D8103381364037083B40CCF0CE1030223710930497409B049F09A640A780D9
:40048000AB04AF04CC70EAC013085B045F04930497409B049F19A422A640A780C410D6C0842097409F11A422A640A780E24008080B040F40C20E84028F1097409F10A40266
:4004C000AE40AF81E210EA40EE50AF40EE40A002AC08AF44B402EC02122074028E20A002C408DE04E20800030C03100311011A011C021D0100EA01BF42020000FF3000003F
:400500004C10A300F3030C004F70900F0000B30B010100000320000008780007044F00300C7F0000000040008C030F4000387C040080AA000000000453060200040000CEB3
:4005400030FFFFFF62A0F0410C00000000000212040404041111000100000000000040020010301000101012000000000000000000000000000000000007070000000000F6
:4005800040808000800000004000000000000000C0000000000B0B000000000004000006020000000000000000000000000000000000000000000000000000000000000059
:4005C00000000000000000000000000000000000000000000000000000000000000000000000000000000000000000000000000000000000000000000000000000000000FB
:4006000000000000000000000000000000000000000000000000000000000000000000000000000000000000000000000000000000000000000000000000000000000000BA
:40064000000000000000000000000000000000000000000000000000000000000000000000000000000000000000000000000000000000000000000000000000000000007A
:40068000000000000000000000000000000000000000000000000000000000000000000000000000000000000000000000000000000000000000000000000000000000003A
:0200000490006A
:0400000000004005B7
:0200000490105A
:04000000BC90ACAF55
:0200000490303A
:02000000E276A6
:0200000490402A
:4000000000000000000000000000000000000000000000000000000000000000000000000000000000000000000000000000000000000000000000000000000000000000C0
:400040000000000000000000000000000000000000000000000000000000000000000000000000000000000000000000000000000000000000000000000000000000000080
:400080000000000000000000000000000000000000000000000000000000000000000000000000000000000000000000000000000000000000000000000000000000000040
:4000C0000000000000000000000000000000000000000000000000000000000000000000000000000000000000000000000000000000000000000000000000000000000000
:0200000490501A
:0C00000000012E16106900012E59F2DFDD
:00000001FF